:104000005542200135D0085A8245422831400039B6
:104010003F4008000F9308249242422820012F833A
:104020009F4FC66B0011F8233F403A170F930724A8
:104030009242422820011F83CF430811F923218394
:10404000B012924C4B4F3D423E40FF003F4020118A
:10405000B0123E6BF2435E1AF2433F28B240805AE0
:104060002001A242600182432E01A24280018243CC
:104070001E01B240805A2001C2435600F240A6FF02
:104080005700C24358003E4303433E53FD23B24012
:10409000805A2001B24000596601B24024026001FA
:1040A000B2F0FEFF660192B36601FD271F42760162
:1040B000B2F0FEFF660192B36601FD271E42760153
:1040C0000E8F3E9000026220B2F0FEFF6601824336
:1040D000660182436001F2F0CFFF57005E42570055
:1040E0007EF007007ED080FFC24E5700C2435800CA
:1040F000F2F0FDFF000082439001B2400202800115
:1041000082437001B240020160011E4280013EF014
:10411000CFFF3ED02000824E80011E4260013EF063
:10412000CFFF3ED02000824E6001C2432600C24332
:104130002E00C2431B00C2431F00C2433300C243D0
:104140003700C2432100F240E0FF2200F24030007D
:104150002900F2407B002A00C2431900F240F1FF1F
:104160001A00F240DDFF1D00F240FDFF1E00F24389
:104170003100F2433200C2433500F2433600C243FD
:104180002500C2432D001F427001153C3E900102E4
:104190000928F25356005F4256007F938123F25361
:1041A00057007E3FD25356005F4256004F9378230C
:1041B000D2535700753F1E4270010E8F3E9001286A
:1041C000FA2BE2D31A00F2D21A00F2D080FF1E00BE
:1041D000F2D010001E00F2D080FF1D00F2D01000BF
:1041E0001D0003430343F2F0EFFF1D00F2F0F7FF61
:1041F00019005F43B01270494F43B01270495F43DA
:10420000B01270495F43B01270495F43B0127049F9
:104210004F43B01270494F43B01270495F43B01220
:104220007049F2D010001D00F2D21900E2D319003B
:10423000F2D010003200F2D020003200F2D0400064
:104240003200F2D010003100F2D020003100F2D064
:1042500040003100B012BA594F93FC231F4206119F
:104260001F53824F0E1A8243101AB2F0EFFF620101
:10427000B240004062018243061A3E40FF001F42E6
:104280000611B012026AC24F581A8243461AF2400F
:104290005A006A1AB240B3FF2A1A82432C1A824388
:1042A0001411C243081AC2435711C2431611F240F7
:1042B00023001711C2431811C2431911B240701ADA
:1042C0001A11B240000184018243860182438801B1
:1042D00082438A0182438E018243660182438C01BC
:1042E000B24080002811B2405F282A11B240270353
:1042F0002C11B240F2052E118243481182434A111B
:104300008243401182434211824344118243461149
:104310008243381182433A1182433C1182433E1159
:10432000C243402882436E1AB2400004681AB01299
:10433000BA594F93FC234F4BB012A44C32D2C24314
:10434000381A3D40AE080E433F405811B0123E6B44
:10435000F2D0C0FF1B00F24011007800F2402000B4
:104360007900F24024007C00C2437D00F240290025
:104370007B00F24020000500F2F0FEFF7800B01252
:10438000924C4B4FF24017007000F240A2FF7100B8
:10439000E2437400C2437500C2437300F2D00E00C2
:1043A0001B00F2D00A001A00F2D040000400F2F024
:1043B000FEFF7000F2D064001E00F2F0FDFF1E0050
:1043C000F2F0E6FF2200E2D21D00F2F0FEFF25002F
:1043D000F2F0FEFF2400F2F0FEFF2300F2D02000F6
:1043E0001D00F2F0BFFF1D003F53FE23F2D040003E
:1043F0001D005F43B01244463F53FE23053C5F431C
:10440000B01244463F53FE234F43B01244463FB0E0
:104410004000F5277F401100B01298460E4F3EF045
:10442000FFF77F401100B012E6487F401200B01243
:1044300098460E4F3ED000057F401200B012E6486D
:104440007F401900B01298460E4F3EF0FFFD7F40AE
:104450001900B012E6487F401800B01298460E4F7F
:104460003EF000FE3ED0B0017F401800B012E6489A
:104470007F401700B01298460E4F3ED000207F407C
:104480001700B012E6487F401500B01298460E4F54
:104490003ED01F007F401500B012E6487F401C0050
:1044A000B01298460E4F3ED0FF007F401C00B01265
:1044B000E648B01246487F400600B0124446924398
:1044C000061AB012D04F4F4BB012A44C8293061173
:1044D00003204F43B0123A4EB012924C4A4F963CD2
:1044E000C29304118724B2B0100082011820B2B028
:1044F000100084011420B2B0100086011020B2B068
:10450000100088010C20B2B010008A010820B2B05F
:1045100010008C010420B2B010008E0107241E424E
:1045200080013EF000033E9000022E245F42040012
:104530003FB0C00005245F4271003FF020002620FC
:104540005F4205003FB0300005245F4279003FF034
:1045500020001E205F4270001FF31C245F42710088
:104560003FF020001A245F4272003FF02000182420
:104570005F4270002FF217245F4270003FF020006E
:1045800015207E400500133C6E43113C6E430F3CEA
:104590006E430D3C7E4005000A3C7E400500073C12
:1045A0007E400500043C7E400500013C6E43B2B0F5
:1045B0001000A0011924B2B01000A2010524B2B26B
:1045C000A2010F246E43103C1F42A2013FB0000421
:1045D0000B241D4260013DF000033D9000020420C9
:1045E000023C4E43013C6E437E90030001286E4323
:1045F000C24E0C115E420C110E5E1E4EBA6B3ED2C4
:10460000814E000022D132C203430343F2935E1A6B
:104610006727B012144A4B4F7F9362274F4AB0125C
:10462000A44C4F4BB0121857573F32D0F000FD3F0B
:104630003040A86B5E4203003EF02000FB27C24FD3
:104640007F003041E2D21D00F2F0FBFF1D00C24F9F
:1046500077005F4202003FF04000FB275F42760098
:10466000E2D21D0030417F400900B0124446304183
:104670001F4290011F821211824F12116F42B0121D
:104680004446B240104984011E4212110F43825E1B
:104690003211826F34113041E2D21D00F2F0FBFF83
:1046A0001D007FD04000C24F77005F4202003FF004
:1046B0004000FB275F4276005F4202004F93FC37C9
:1046C000C24377005F4202003FF04000FB275E429A
:1046D00076004E4E8E105F4202004F93FC37C2436D
:1046E00077005F4202003FF04000FB275F42760008
:1046F000E2D21D004F4F0FDE3041E2D21D00F2F03A
:10470000FBFF1D00F2407F0077005D4202003DF09C
:104710004000FB275D4276000D4F0F3C5C420200DB
:104720004C93FC37C24377005C4202003CF04000EF
:10473000FB27DD42760000001D534C4D4C8F4C9EF4
:10474000ED2BE2D21D003041C2431611D292171157
:10475000181103207F40050030414F4330410D4385
:104760003E430C4F0C5D5C4C01008C100EEC7C4207
:104770000E9304340E5E3EE02110013C0E5E7C532D
:10478000F7231D533D901800EC23CF4E1A008E10D6
:10479000CF4E190030411F427001013C0F4E1E42A6
:1047A00070010F9EFB2330410B120A121A42341A79
:1047B0001B42361A1F4260015FF302241A530B6337
:1047C000B0129647824F661A0C4F0D437F4005008A
:1047D00012C30D100C107F53FB230E4A0F4B4FEAF0
:1047E0000FEA8F104E4E8E100E5E0F6F0E5E0F6F23
:1047F0000E5E0F6F0A4C0B4D0ADE0BDF824A2E1A3B
:10480000824B301A3A413B413041E2D21D00F2F076
:10481000FBFF1D00F2407F0077005E4202003EF089
:104820004000FB275E4276005E4202004E93FC375A
:10483000C24377005E4202003EF04000FB27DF42A9
:1048400076000000304121830F41B0120A487F42B8
:10485000B01244467F42B012444621533041B24028
:1048600000598E01B2400059660192B38E01FD27B6
:1048700092B36601FA271D429E01824D681A1C42BE
:104880007601824C4A1A82438E0182436601B2400D
:10489000005966017F400700B2F0FEFF660192B347
:1048A0006601FD277F53F82382436601B240005919
:1048B0008E01B2400059660192B38E01FD2792B37A
:1048C0006601FA271E429E011F42760182438E0135
:1048D000824366010F8C824F4A1A3F9203200E8D4D
:1048E000824E681A3041E2D21D00F2F0FBFF1D003B
:1048F000C24F77005F4202003FF04000FB275F425B
:1049000076005F4202004F93FC370F4E8F104F4FDF
:10491000C24F77005F4202003FF04000FB275F423A
:1049200076005F4202004F93FC37C24E77005F4231
:1049300002003FF04000FB275F427600E2D21D00FC
:1049400030410B124B4F7F401800B01298460E4F6B
:104950003EF000FE4C4B0D4C0D5D0D5D0D5C3D5071
:104960002E010EDD7F401800B012E6483B41304179
:104970004F9304245F4219006FD3043C5F42190037
:104980007FF0FDFFC24F1900F2D21900F2F0F7FFDD
:10499000190030415D426A1A1E422C1AE2D21D00F3
:1049A000F2F0FBFF1D00F2403E0077000F4E0E3C80
:1049B0005C4202003CF04000FB275C4276005C4217
:1049C00002004C93FC377C4FC24C77004C4F4C8E0E
:1049D0004C9DEE2B5F4202003FF04000FB275F4200
:1049E0007600E2D21D004F43B01244463FF0200053
:1049F0001024B01266469243461A1F4290013F505F
:104A0000CE56824F9C01924290011211B24010008A
:104A10008C0130415F425E1A4E4F3E5020116D4E68
:104A2000C24D5E1A7D930220F2433F28FE430000F0
:104A300030411F4282018F105FF302241F42920116
:104A40003041D2921711181103248293461A082478
:104A50008243461AC2431811C24319115F433041C1
:104A6000C2434028C2433011C2433111C243361100
:104A7000C24337118243321182433411A242461A93
:104A8000B240104984014F4330410B120A120912FF
:104A900008129293061A5B247F400600B012444627
:104AA0005F4230115E4231110F5E021232C2034387
:104AB000824F320192422A11380119423A013241A1
:104AC0005F423611021232C20343824F32019242D8
:104AD0002C1138011A423A0132415F423711021259
:104AE00032C20343824F320192422E1138011B42DF
:104AF0003A0132411C4232111D423411084B085A0E
:104B00000E480E590F430E5C0F6D824E0A1A824FEB
:104B10000C1A825E3811826F3A11825C3C11826DF0
:104B20003E110C490D43825C4011826D42110C4ACA
:104B30000D43825C4411826D46110C4B0D43825C27
:104B40004811826D4A11824F5411824E441A3841E5
:104B500039413A413B4130410B120B4F7F4022001B
:104B6000B01234465F43B01234466F4BB012344635
:104B70003B413041E2D21D00F2F0FBFF1D00F2404C
:104B80009BFF77005F4202003FF04000FB275F423F
:104B900076005F4202004F93FC37C24377005F42CA
:104BA00002003FF04000FB275F4276005F420200B8
:104BB0004F93FC37D242081A77005F4202003FF061
:104BC0004000FB275F427600E2D21D0030415E428A
:104BD00000003F404C1ACF4E0000CF4301005D4221
:104BE00001000E4F2E53CE4D0000CE4301005D421A
:104BF00025000E4F2E52CE4D0000CE4301005E42E6
:104C00002D003F500600CF4E0000CF430100C243AD
:104C10000000C2430100C2432500C2432D00B2F090
:104C2000FBFFE001B2F0FBFFE801B2F0FBFFF00197
:104C3000F2F0FDFF5900B2F0FDFF6001B2F0EFFFAE
:104C40006201B2F0EFFF6401B2F0EFFF6601B2F073
:104C5000EFFF8201B2F0FDFF8001E2D31F00B240FE
:104C600010498401B2F0FEFF840130410B120B4F5A
:104C70007F407700B01234465F43B01234462B4B6E
:104C80000F4B8F10B01234464F4BB01234463B419D
:104C900030410E4232C2034303433EF25F430120E0
:104CA0004F4330414F93012432D230410B120A124C
:104CB000091208120712B012924C474F1A42341AC6
:104CC0001B42361AB01296470D4F1F4260015FF328
:104CD00005241A530B63B01296470D4F12C30D10E3
:104CE00012C30D1012C30D1012C30D1012C30D10FC
:104CF000084D09430E4A0F4B4FEA0FEA8F104E4EF4
:104D00008E100E5E0F6F0E5E0F6F0E5E0F6F08DE61
:104D100009DF4F47B012A44C0E480F4937413841C4
:104D200039413A413B4130410B120A12B012AC4CAE
:104D30001C42161A1D42181A0A4C0B4D1A52121A0E
:104D40001B62141A0F9D092802200E9C06280B9D39
:104D5000102809200A9C0D28063C0B9D04280D9B59
:104D600027280A9C252C0F9B04280B9F21280E9A8C
:104D70001F2C0C4A0D4B0C8E0D7F0D9303203C9085
:104D8000010418280A4E0B4F3A5000040B63824A64
:104D9000161A824B181A0A4C0B4D3A5000FC3B6312
:104DA000824A121A824B141A3C4000040D430A3CFA
:104DB0000C430D43824A161A824B181A8243121A68
:104DC0008243141A0C5C0C5C0C5C0C5C0C5C0E5E7C
:104DD0000E5E0E5E0E5E0E5E1F427001013C0F4DB8
:104DE0001D4270010F9DFB230B4F0B8E0B9C09285E
:104DF0001F427001013C0F4E1E4270010F9EFB23AB
:104E00000C3C0C8B3C9003000C2C1F427001013CAD
:104E10000F4E1E4270010F9EFB232F53824F7201D3
:104E2000033C0C5F824C7201B2F0FEFF6201B2D013
:104E3000100062013A413B4130410B124B4FB0121E
:104E4000924C4E4BFE93201106201E43C29B3F28DE
:104E500003240E43013C1E430E930E20F2935E1A70
:104E60000320C24B5E1A043C5E423F28CE4B201109
:104E7000C24B3F284B43023C7B400500B012A44C80
:104E80004F4B3B4130410B120B4FA293061A0220AD
:104E9000B01246485F4B07008F105E4B06000FDED6
:104EA0001D4206110F9D12243F9310245E4B1100EA
:104EB0008E105F4B12000EDF0E9D08241F433E93A1
:104EC00006243E90FEFF03240F43013C1F430F9333
:104ED0002924FB9006000B002520D2520111081155
:104EE0002D9308243D90030008241D930A207F4041
:104EF0001600053C7F401300023C7F400F00B012BB
:104F00004249A292061102244F430A3C6F43B01259
:104F10003A4E5F4208111F92021104207F400300A5
:104F2000B0123A4E5D4219115F4218115E421711DC
:104F30000F5DB0123C6AC24F19114F4F021232C2BC
:104F40000343824F3201B240650038011F423A01EB
:104F500032413F50701A824F1A11C24318113B411F
:104F600030415F93202406286F9325247F9005000D
:104F70002E20293C1F4262018F105FF303241F4241
:104F800072013041B2F0EFFF62018293121A0820E1
:104F90008293141A05207F400600B0123A4E304129
:104FA000B012284D30411F4264018F105FF30F246F
:104FB0001F42740130411F4266018F105FF30724C6
:104FC0001F42760130419253341A8263361A3041BF
:104FD000B012AC4C3D403A1A8D4E00008D4F02008D
:104FE000BD40000804008D430600FDD0030008000A
:104FF0007F400700B0123A4E30410B120A120912DC
:105000000A4F9293061A99241E420E111F42101144
:105010001E520A1A1F620C1A0C4A0D430E5C0F6DC9
:105020007D40070012C30F100E107D53FB231C425E
:10503000661A0D430E5C0F6D094F1A42341A1B425B
:10504000361A033C5D530A4E0B4F0E4A0F4B1E534C
:105050000F634C4D0C99F62B824A341A824B361A48
:105060009243061AD2424C1A0000D2424E1A010054
:10507000D242501A2500D242521A2D00B2F0F7FF48
:10508000E001A2D2E001B2F0F7FFE801A2D2E8010C
:10509000B2F0F7FFF001A2D2F001F2F0FEFF5900EA
:1050A000E2D35900B2F0FEFF6001A2D36001B2F07A
:1050B000FEFF6201B2D010006201B2F0FEFF640197
:1050C000B2D010006401B2F0FEFF6601B2D0100051
:1050D0006601B2F0FEFF8001A2D38001B2F0FEFFB4
:1050E0008201B2D010008201B01296470C4F0D43DE
:1050F0007F40050012C30D100C107F53FB230E4A96
:105100000F4B4FEA0FEA8F104E4E8E100E5E0F6F50
:105110000E5E0F6F0E5E0F6F0EDC0FDD1F92301AEA
:105120000628829F301A07281E922E1A042C9253AA
:10513000341A8263361AB012D04F39413A413B419A
:1051400030410B120A120B4FB012924CF2E01000D9
:105150003100B012A44C3B9058113920C243381A88
:105160005A4201111B4206111D4202111E420A1130
:105170000F43143C021232C20343824F3201B24049
:10518000650038011C423A013241CC93B511042428
:105190000B9303203D53013C3E531F534F9AEA2B80
:1051A000824D0211824E0A11829306110A245F4237
:1051B00008110F9D04207F400300B0123A4E5F4358
:1051C000043C9293021103384F43B0123A4E3A41D5
:1051D0003B4130410B120A12091208120B4D494C87
:1051E000CD930D0003245D4D1000013C4D4379909B
:1051F0003E00D02CCB4F0B00CB4E06000F4E8F1035
:105200004F4FCB4F0700CB4E1200CB4F11006D9389
:1052100068289293061AC020F2F0FDFF421AB012DD
:10522000924C484FD24B1000391AB2400300061A74
:10523000D243541A4A433F3C5F42581A021232C2C8
:105240000343C24A3001F240650038011E423A0170
:1052500032410E5BFE4041000100FE4088FF02002B
:10526000CE430400CE4305001D420611CE4D08007A
:105270008D10CE4D09005D4E07008D105C4E06006E
:105280000DDC3D930524DE430E00FE40610001006D
:10529000FE405A000000CE4F0300CE490C00CE4322
:1052A0005D00CE435900CE435A000F4EB0125E4708
:1052B000D253581A5A535A92391ABE2B3D400F00F6
:1052C0000E4B3E500D003F401A1AB012446AB01205
:1052D000CE4BB01248477F400300B01244464F48BF
:1052E0004E3C9293061A5820F2F0FDFF421AB0127B
:1052F000924C4A4FB2400300061AC243541A5F420E
:10530000581AFB4041000100FB4088FF0200CB43DC
:105310000400CB4305001E420611CB4E08008E1040
:10532000CB4E09005E4B07008E105D4B06000EDD74
:105330003E930524DB430E00FB4061000100FB406F
:105340005A000000CB4F0300CB490C00CB435D005B
:10535000CB435900CB435A003D400F000E4B3E500B
:105360000D003F401A1AB012446A0F4BB0125E474C
:10537000B012CE4BB012A847B01248474F4AB012F5
:10538000A44C8293461A08203E401A1A0F4BB012C2
:10539000C055043C6F43023C7F4005003841394111
:1053A0003A413B413041C24300111D42321A0D9334
:1053B00004245F42641A1FF30224D2430011C293F3
:1053C000001112205F4D07008F105E4D06005C4DEE
:1053D0000C000EDF5F4D0B00B012D4514F9304242C
:1053E0007F400500B0123A4E30410B12C2930011BB
:1053F0000B201B42321A0B9F07208243321AB01235
:10540000A6530F4BB01242513B4130412183B29021
:105410000300061A1C20814F0000B0126646D253CA
:10542000581A2F41C293541A10245E42391A02129C
:1054300032C20343824E3201B2409BFF38011E420A
:105440003A0132413E5065000F5EB012EA532153DB
:1054500030410B120A1209120812071206121842E2
:105460002A1A824F12114F43B01244462FF3FB27E2
:105470007640160007430A4349434B431D3C7F4097
:105480001300B01298464D4F3D90810003383D50B7
:10549000D3FE023C3D50D3FF1F422A1A3F50030067
:1054A0000F9D06345B53075D089D0434084D023C94
:1054B00059530A5D7653032492B38401E0276B921B
:1054C0001B2892B3840118204E4B0F47B0120A6A72
:1054D000088F389006000A341F4290013F50CE5684
:1054E000824F9C01B24010008C01633C1F42461A5F
:1054F0001F9318242F92282492B384015A201B4210
:105500002A1A0B5B0B5B4E490F4AB0120A6A3E40E7
:1055100005000F5BB0120A6A824F2A1A1F42461A10
:105520001F931020A243461A1E4290011E821211A0
:105530000F43825E3211826F3411B0127046B01286
:105540009449373C2F9235201D4290011D82121143
:10555000824D12110E4D0F43825E3211826F341153
:105560008243461AB24000018401B0128A4AC293B3
:10557000161111245F421911021232C20343824FE5
:105580003201B240650038011F423A0132413F50BA
:10559000701AB012864E1F422C1A0F930424B012B8
:1055A0000C5482432C1A1F4290011F829401B012A6
:1055B000FA4F36413741384139413A413B41304158
:1055C0000B120A1209120A4F094EB012924C4B4F9D
:1055D0008249481A824A2C1AC243081AC2434028F8
:1055E000C2433011C2433111C2433611C243371195
:1055F00082433211824334119243461AB240104919
:1056000084019242900112117F400300B01244467F
:1056100092B3840104201F429001B01252544F4BA8
:10562000B012A44C4F4339413A413B4130410B1237
:10563000B012924C4B4FB012424A4F930324B01217
:10564000D04F123CF2F0FDFF421AA243061AB012EC
:10565000CE4BB012A847B0124847924290011211A7
:105660007F400300B01244464F4BB012A44C3B4164
:1056700030410B120A1209125942421A69B34424EA
:105680001A423A1A1B423C1A1C423E1A1D42401A48
:105690000E8A0F7B0F9D382802200E9C352859B3A7
:1056A000052479F0FDFFC249421A083C0E4C0F4D0B
:1056B0000E5A0F6B824E3A1A824F3C1A9293061A78
:1056C0002320B012924C4A4FB012424A4F93032407
:1056D000B012D04F163CA243061AB012CE4BB012F5
:1056E000A847B01248479242900112117F40030030
:1056F000B012444692B3840104201F429001B012BC
:1057000052544F4AB012A44C7F400700B0123A4E98
:1057100039413A413B4130410B120A120912081239
:105720003150FAFF7F9202283040AC594F4F0F5F43
:10573000104FAA6B18420611C293381A0224304047
:10574000AC594A432E3C4E4A021232C20343824EA7
:105750003201B240650038011B423A0132413B50F0
:105760005811DB430D00CB4F10001F420A11CB4FE5
:105770001D000E4F8E10CB4E1C001F53824F0A117E
:10578000B012AC4CCB4E21000D4F8E108D104EED53
:105790000EEDCB4E2000CB4F1F008F10CB4F1E00C5
:1057A0005A535F4201114A9FCE2B0D481D534E4D57
:1057B000C24D5E110F4D8F104F4F4C4FC24F5F11B6
:1057C000C24D6A11C24F6911F24006006311829303
:1057D000321AEC20B2405811321AF240060064111D
:1057E000C2930011DA24C24300114F4C8F104E4E69
:1057F0007C4006003D4058110EDF7F400600B0128D
:10580000D4514F93CA24D24300118243321ACE3C62
:105810001F4206112F9308243F90030008241F9372
:105820000A207F401A00053C7F401600023C7F4062
:105830001300B01242499293061AB820B0122E56A5
:10584000B53C1F423A11924238114C11824F4E1111
:10585000814F02000F412F53B0126C4C91424C11FA
:1058600000000F41B0126C4CA13CC293641A9E24FC
:105870003A40321A48435B435E42641A4BBE0A24E4
:105880002F4A8A4300004ECBC24E641A489302202E
:10589000B01242514B5B58532A537892ED23863C09
:1058A0005B4200114F4B0F5F0E4F3E50321A2A4E93
:1058B0008E430000B012A6534B9378200F4AB012CB
:1058C0004251743CC293501128201A425A1A1B426A
:1058D0005C1AB012924C1842121A1942141A185239
:1058E000161A1962181AB012A44C824A5A1A824B1C
:1058F0005C1AC2435011B012924C8248161A824967
:10590000181A824A121A824B141A814F0400B012DC
:10591000284D1F410400B012A44CB012AC4C213CE5
:10592000B012AC4C0A4E0B4FB2F0EFFF6201E2B383
:10593000421A3C24084E094F18823A1A19723C1A2E
:105940001E423E1A1F42401A0E880F79084E094F18
:105950000F493E9325203990FF7F2220273C0E4A95
:105960000F4BB0127256223C82485A1A82495C1A76
:10597000D2435011B012924C824A161A824B181A16
:105980008248121A8249141A814F0400B012284D1D
:105990001F410400B012A44C093CD243381A063C03
:1059A0000F93DD3BE1231E93DA2BDE3F31500600DF
:1059B000384139413A413B413041F2935E1A082463
:1059C000B012144A7F930624B01218575F43304137
:1059D0004F4330414F4330410F120E120D120C1243
:1059E0004F43B012624F3C413D413E413F41B1C047
:1059F000F000000000130F120E120D120C121F42C5
:105A00002E014F4F12C34F10B012624F3C413D4127
:105A10003E413F41B1C0F000000000130F120E12D2
:105A20000D120C12B012324A3C413D413E413F4101
:105A3000B1C0F000000000130F120E120D120C1274
:105A40000B120A1209120812071231821F4290012A
:105A50001E4294013F50DAFF0F8E814F0600915194
:105A6000060006001F4290011E4296013F50C7FFEC
:105A70000F8E814F04009151040004001F421E014B
:105A8000824F561AB240000184012F930224304005
:105A9000EC661F42461A3F90030004243F92022402
:105AA0003040B25C5E421C002EF30321F1400B003B
:105AB00000000F41B012584B1F4294011F82621A1E
:105AC000824F621A924294011211B2900600461A55
:105AD00002205F421C00B2F0EEFF8801B2400001DC
:105AE0008401B190090006008D2C1051060003437B
:105AF0000343034303430343034303430343034376
:105B000003430343034303439252681A96018243BB
:105B1000860192B38601FD27B2F0FEFF8601B01226
:105B200070461B421A111A422C1A7E4006000F4B77
:105B3000B012FA465F4B02005E4B0100B2900300C8
:105B4000461A52204F4F8F104FDE7FF007006F93A1
:105B50004520DB9A0300030041201E422C1ADE433D
:105B60005D001F42481A5D4F03007D53CF4D030077
:105B70000B24A243461AC243081A3E506500824EC7
:105B80002C1AB0129449303CCF930A000524A2434A
:105B9000461AD253081A263C4F43B01244463FF0EF
:105BA00020000220B01266464F43B01244463FF038
:105BB0002000FA27B0126646B2F0FEFF840192433D
:105BC000461A1F4290013F50CE56824F9C0192428E
:105BD00094011211B24010008C01063CD253081AF5
:105BE000A243461AB012744BB292461A02243040B5
:105BF000245FB2400700461AD253081AB012744B01
:105C00003040245F1B421A111A422C1A7E400600B3
:105C10000F4BB012FA465F4B02005E4B0100B29090
:105C20000300461A3D204F4F8F104FDE7FF00700D4
:105C30006F932A20DB9A0300030026201F422C1AB0
:105C4000DF435D001D42481A5E4D03007E53CD4E7A
:105C5000030009249243461AC243081A3F506500C4
:105C6000824F2C1A193CB0126646A242461A1F42B5
:105C700090013F50CE56824F9C01924294011211E6
:105C8000B24010008C010C3CD253081AB012744B75
:105C90009243461AC243081A1F429401B01252544A
:105CA000B292461A02243040245FB0126646304059
:105CB000085F3F90060002243040325F5E421C00C5
:105CC0002EF302243040BC65F140160000000F4165
:105CD000B012584B1F4294011F82621A824F621AFF
:105CE000924294011211B2F0EEFF8801B24000011D
:105CF0008401B19009000600A82C1051060003434E
:105D00000343034303430343034303430343034363
:105D10000343034303430343034303430343034353
:105D20000343034303430343034303430343034343
:105D300003430343034303439252681A9601824389
:105D4000860192B38601FD27B2F0FEFF86011F4255
:105D5000481A5E4F03004E93062482932C1A0324A4
:105D6000CF9302003D20C29316113524D292171111
:105D7000181131241F425211CF930A001524FF90AD
:105D800007000B00112CB2400700461A1F422C1AC4
:105D90000F9304244E930524824F141192421A113A
:105DA0002C1AC243081A1E3CCF9300004A204F43CE
:105DB000B01244463FF020000220B01266464F4326
:105DC000B01244463FF02000FA27B0126646B2F007
:105DD000FEFF8401553C4E93082482932C1A05241F
:105DE000A243461AB01294499D3C4F43D2921711D8
:105DF00018111820B01244463FF020000220B012C3
:105E000066464F43B01244463FF02000FA27B012D6
:105E10006646B24000018401D25336119242621AA2
:105E20002C114B3CB01244463FF020000220B0122F
:105E300066464F43B01244463FF02000FA27B012A6
:105E40006646B2F0FEFF84015C3C1E42481A5D4E7D
:105E500003004D93062482932C1A0324CE93020050
:105E60001720C29316110F24D292171118110B2468
:105E70001F425211CF9300004420B24010498401C8
:105E8000A242461A0A3C4D930D2482932C1A0A24EE
:105E9000B240104984019243461A1F429401B01245
:105EA0005254403CD292171118112B20B2400001DD
:105EB0008401D2533611824F2C11B0128A4AC293F8
:105EC000161111245F421911021232C20343824F8C
:105ED0003201B240650038011F423A0132413F5061
:105EE000701AB012864E1F422C1A0F930424B0125F
:105EF0000C5482432C1A1F4290011E4294013040E0
:105F00008869B24010498401A242461A1F4290019A
:105F10003F50CE56824F9C01924294011211B240E2
:105F200010008C01D25336119242621A2C1130406B
:105F3000CC693F9005000224304074615F421C0030
:105F40002FF302243040C666F140210000000F41CB
:105F5000B012584B1F4294011F826C1A824F6C1A68
:105F60001E429401824E1211B2F0EEFF8801A293FC
:105F7000461A02205F421C00B24000018401B19029
:105F800009000600B82C10510600034303430343E5
:105F900003430343034303430343034303430343D1
:105FA000034303431F4294011F52681A824F960114
:105FB0008243860192B38601FD27B2F0FEFF86017F
:105FC0001F4290010F8E824F121192429001601A6F
:105FD000C293561107247F400A00B0124446B240D3
:105FE000104984011F42681A0E4F0E5E12C30F1033
:105FF0000F5E1F52601A824F9601B2401000860158
:106000001E4212110F43825E3211826F34111A4206
:106010001A11B2400600461A5D4257115E426A1AD2
:106020005E534F4D4E8D0F5AB012FA465F426A1AB8
:106030004E4F5E53C24E57110F5ACF930000563445
:106040001B421A11C293561108205F4B11008F108A
:106050005E4B12000FDE3F934B2058421811494807
:10606000795357421911263C4F493E4023000F57A0
:10607000B0123C6A021232C20343824F3201B24074
:10608000650038011E423A0132413E50701ADA9ED4
:10609000030003000E205C4A09008C105F4A0800D0
:1060A0000CDF5D4E09008D105F4E08000DDF0C9D6A
:1060B000582459534998D82B3040A2695D42191190
:1060C0004F4E3E4023000F5DB0123C6A021232C2B6
:1060D0000343824F3201B240650038011F423A014A
:1060E00032413F50701A824F1A113B3CB012664643
:1060F000B0124648363C1E421A11A242461A5F426E
:1061000057115D426A1A5D534D8F0E5F0F4E0F3C63
:106110005C4202004C93FC37C24377005C420200B1
:106120003CF04000FB27DF42760000001F534C4F3D
:106130004C8E4C9DED2BE2D21D005F426A1A5F53DC
:10614000C24F5711B240104984011F4290013F5085
:10615000CE56824F9C01924294011211B24010001F
:106160008C01D25330111F422A110F5F0F5F1F5253
:106170006C1A843C2F938B205F421C002FF3022467
:1061800030407866F1402C0000000F41B012584BAF
:106190001F4294011F821C11824F1C111C4294014A
:1061A000824C1211B2F0EEFF8801B240000184016E
:1061B000B190090006004F2C105106000343034321
:1061C000034303430343034303430343034303439F
:1061D0000343034303431F42681A1E4294010E5FA8
:1061E000824E96018243860192B38601FD27B2F06A
:1061F000FEFF860103430343034303430343034377
:10620000034303430343034303430343034303435E
:10621000034303431D4290010D8C824D12111C4219
:106220009001824C601AB240104984010E4F0E5EFC
:1062300012C30F100F5E0F5C824F9601B240100028
:1062400086010E4D0F43825E3211826F3411B240CF
:106250000300461A0B3CB0126646B2401049840156
:106260009243461A1F429401B0125254D253311134
:106270001F422A110F5F0F5F1F521C110F5F3E401C
:106280000A00B012E869824F2A113040CC693F9071
:1062900007008C205F421C002FF3022430402E6642
:1062A000F140370000000F41B012584B1C429401DE
:1062B000824C1211B2F0EEFF8801B240000184015D
:1062C000B190090006004E2C105106000343034311
:1062D000034303430343034303430343034303438E
:1062E0000343034303431F42681A1E4294010E5F97
:1062F000824E96018243860192B38601FD27B2F059
:10630000FEFF860103430343034303430343034365
:10631000034303430343034303430343034303434D
:10632000034303431D4290010D8C824D12111C4208
:106330009001824C601AB240104984010E4F0E5EEB
:1063400012C30F100F5E0F5C824F9601B240100017
:1063500086010E4D0F43825E3211826F3411B242BC
:10636000461A203CB01266461F42481ACF930300DB
:106370000B241F4214110F930724824F2C1A8243BF
:1063800014119243461A053CB24010498401A242BE
:10639000461A1F4290013F50CE56824F9C01B24098
:1063A00010008C01D25331113040CC692F9204245B
:1063B0001F9302243040AC655E421C002EF3022085
:1063C0003040AC65F140420000000F41B012584B24
:1063D0001F4294011F821211824F121192429401A6
:1063E0006C1AB2F0EEFF8C01B19001040600132884
:1063F000B0124648A242461A1F4290013F50CE5664
:10640000824F9C011E4212110F43825E3211826F35
:1064100034113040E466B240108984011E42940178
:106420003E5020035F426A1A7D4007000F5F7D5394
:10643000FD230F5E824F9801924294011E11B240DB
:10644000100088011B421A11B1430200B24005003E
:10645000461A033C92B3880129205F4220003FF294
:10646000F9270F4BB0120A48E29B6A1A1724B2F0C0
:10647000EEFF8801B0124648A242461AB2401049C7
:1064800084011F4290013F50CE56824F9C019242A0
:1064900094011211B24010008C017F3CB0125E4892
:1064A000D24357116F3C92B388010624B01246487C
:1064B000B24000018401713C5E4220003EF2F327AD
:1064C0004F4F0F5B5E4202004E93FC37C243770092
:1064D0005E4202003EF04000FB27DF4276000000F3
:1064E0005D4257117D901900122C4F4D0F5B6E4F7E
:1064F0008E101EE102007F420E9304340E5E3EE0D9
:106500002110013C0E5E7F53F723814E02005D5344
:10651000C24D57117D901C0035201E421A11CE939A
:106520000E001F205D4E11008D105F4E12000DDF1A
:106530001D92061116243D90FEFF10205D4E1300A3
:106540008D105F4E14000DDF1D826E1A5C4E15001B
:106550008C105F4E16000CDF0C9D0328C2435611B1
:10656000023CD24356115D4E19008D105F4E1A0049
:106570000DDF819D02000624C24356110F412F53A7
:10658000B0126C4C5F4257115E426A1A3E50FDFFDA
:106590004D4F0D9E913BE2D21D001E4212110F4342
:1065A000825E3211826F34113040CC693F90060018
:1065B00005243F90030002243F9236205E421C00D7
:1065C0002EF33224F1404D0000000F41B012584B21
:1065D0001F4294011F82601A824F601A92429401F6
:1065E000621A0E4F3E5024FA3E9065000728B01202
:1065F0004648B240104984013040CC69B2F0EEFF09
:1066000086011E4294013E50A005824E980192429E
:1066100094011E11B24010008801B240108984011B
:10662000824F2E11304062683F90070023205F4266
:106630001C002FF34824F140580000000F41B01215
:10664000584BB240108984011E4294013E502003F1
:106650005F426A1A7D4007000F5F7D53FD230F5E86
:10666000824F9801924294011E11B240100088019D
:10667000304062682F9327205F421C002FF32324B1
:10668000F140630000000F41B012584B9242940158
:106690001C11B240108984011E4294013E50200317
:1066A0005F426A1A7D4007000F5F7D53FD230F5E36
:1066B000824F9801924294011E11B240100088014D
:1066C000B0125E48CE3CB0126646B0124648A242B6
:1066D000461AB240104984011F4290013F50CE56E5
:1066E000824F9C011F4294013040D0683F900600C9
:1066F000BB243F900A0002203040DC682F92022425
:1067000030409069924296011211B2F0EEFF86017C
:10671000B24000018401E14200000F41B012584B29
:10672000B19009000400792C105104000343034385
:106730000343034303430343034303430343034329
:106740000343034303439252681A9601824386012E
:1067500092B38601FD27B2F0FEFF8601B0127046AB
:106760001F42461A3F9006001E201F42481ACF9330
:1067700003000A2482932C1A0724A243461AB0125B
:106780009449C243081A6B3C4F43B01244463FF051
:1067900020000220B01266464F43B01244463FF03C
:1067A0002000FA271E3C3F9003000320A243461A14
:1067B000053C3F920820B2400700461AD253081AFF
:1067C000B012744B4C3C4F43B01244463FF0200093
:1067D0000220B01266464F43B01244463FF02000FC
:1067E000FA27B0126646B2F0FEFF8401F290030071
:1067F00040280A28B240000184018243461A1F4201
:1068000090013F508000063CA242461A1F42900170
:106810003F50CE56824F9C011F3C1F42481ACF93D7
:1068200003000C2482932C1A0924D253081A924391
:10683000461A1F429601B0125254113CB240104900
:106840008401A242461A1F4290013F50CE56824F09
:106850009C01924296011211B24010008C01D25359
:106860003611D2533711B23CF140060000000F41FF
:10687000B012584BB24000018401B2F0EEFF880123
:10688000B0126646B01246481F42481ACF93030022
:10689000062482932C1A03249243461A023CA242F5
:1068A000461A1D4298011D821E11824D1E110E4D69
:1068B0000F43825E3211826F3411B240104984015D
:1068C0001F4290013F50CE56824F9C011F429801BB
:1068D000824F1211B24010008C01783CF1400A0046
:1068E00000000F41B012584BB2F0EEFF8401B2F03D
:1068F000EEFF8601B2F0EEFF8801B2F0EEFF8C01F0
:10690000B01246481F42481ACF9303000A249293BC
:10691000461A0720A243461AB0127046B012944994
:10692000553C1D429C011D821211824D12110E4DCB
:106930000F43825E3211826F34118243461AB24095
:1069400000018401B0128A4AC293161111245F42D9
:106950001911021232C20343824F3201B240650064
:1069600038011F423A0132413F50701AB012864E30
:106970001F422C1A0F930424B0120C5482432C1A79
:106980001F4290011E429C010F8EB012FA4F1E3C16
:106990001F421E014F4F12C34F101820B012324A2F
:1069A000153CC2434028FB5318003B500D00824B5E
:1069B0005211D24316114E485E53C24E18115E92C8
:1069C000171102243040BC603040626131523741BF
:1069D000384139413A413B413C413D413E413F41D3
:1069E000B1C0F000000000137C4010000D4E0E43BB
:1069F0000F5F0E6E0E9D02280E8D1FD31C83F82391
:106A00003041B012E8690F4E30410D430F9304340A
:106A10003D4003003FE31F530E9303345DE33EE329
:106A20001E530D12B012E8693D416DB302243EE3DE
:106A30001E535DB302243FE31F533041B0120A6A74
:106A40000F4E30410B120A120912081207120D9351
:106A500070240F9E6E24342C0C4E0CDF1CF31B2470
:106A60000C4E0CEF1CF307202D9307280B4E1BF345
:106A70002C430C8B033C0C4D013C1C430D8C0A4CED
:106A8000094E0B4FFB4900001B533A53FB230A4F9F
:106A90000A5C0E5C013C0A4F0B4D12C30B100B2419
:106AA000094B084E0C4ABC4800002C533953FB23B9
:106AB0000B5B0E5B0A5B1DF33C24EA4E0000393C85
:106AC0000E5D0C4F0C5D0B4C0BDE1BF31B240B4CB3
:106AD0000BEE1BF306203D90030003280B4E1BF327
:106AE000013C0B4D0D8B094E0A4C084B088C3A5358
:106AF0003953EA490000074A0758F9233BE31B537F
:106B00000C5B0E5B0B4D12C30B100E240A4B084E90
:106B1000094C28832983A94800003A53FA230A8B99
:106B20000B4A0B5B0E5B0C5B1DF30324DC4EFFFF7B
:106B3000FFFF3741384139413A413B4130410B1267
:106B40000A12091208123D900600092C0C4F043C51
:106B5000CC4E00001C533D530D93FA23203C4E4E67
:106B60004B4E0B9303240C4B8C100BDC1FB30624F1
:106B70003D53CF4E0000094F1953013C094F0C4DB6
:106B800012C30C100A49084C8A4B00002A53385390
:106B9000FB230C5C0C591DF30224CC4E0000384141
:0A6BA00039413A413B4130410013F6
:106BAA0034571058365842586A58A058C458205971
:0C6BBA000000100050009000D000F0001F
:086BC6000110000201000100B2
:10FFE00030463046304630463046F659D8593046CD
:10FFF0003046304630463046385A1C5A304600406B
:0400000300004000B9
:00000001FF
