:104000005542200135D0085A82455E1331400039AF
:104010003F4004000F93082492425E1320012F8337
:104020009F4F1E650011F8233F405A020F9307244B
:1040300092425E1320011F83CF430411F923218391
:10404000B012C64B4B4F2D423E40FF003F401C116B
:10405000B012A664F243E411F2435C13B240805AFA
:104060002001A242600182432E01A24280018243CC
:104070001E01B240805A2001C2435600F240A6FF02
:104080005700C24358003E4303433E53FD23B24012
:1040900000516601B24024026001B2F0FEFF6601E9
:1040A00092B36601FD271F427601B2F0FEFF660162
:1040B00092B36601FD271E4276010E8F3E900004EA
:1040C00015243E9001040928F25356005F42560021
:1040D0007F93E323F2535700E03FD25356005F42F1
:1040E00056004F93DA23D2535700D73F82436601DD
:1040F00082436001F2F0CFFF57005E4257007EF02E
:1041000007007ED080FFC24E5700C2435800F2F035
:10411000FDFF000082439001B24002028001824311
:104120007001B240020160011E4280013EF0CFFFEB
:104130003ED02000824E80011E4260013EF0CFFF43
:104140003ED02000824E6001C2432600C2432E00B2
:10415000C2431B00C2431F00C2433300C2433700A7
:10416000C2432100F240E0FF2200F240300029006B
:10417000F2407B002A00C2431900F240F1FF1A000E
:10418000F240DDFF1D00F240FDFF1E00F243310052
:10419000F2433200C2433500F2433600C2432500E9
:1041A000C2432D001F4270011E4270010E8F3E90CF
:1041B0000128FA2BE2D31A00F2D21A00F2D080FFC3
:1041C0001E00F2D010001E00F2D080FF1D00F2D0C1
:1041D00010001D0003430343F2F0EFFF1D00F2F057
:1041E000F7FF19005F43B01206494F43B01206496A
:1041F0005F43B01206495F43B01206495F43B012F5
:1042000006494F43B01206494F43B01206495F4377
:10421000B0120649F2D010001D00F2D21900E2D30C
:104220001900F2D010003200F2D020003200F2D09B
:1042300040003200F2D010003100F2D020003100F6
:10424000F2D040003100B0127E564F93FC231F4243
:1042500002111F53824F601182436211B2F0EFFFCF
:104260006201B24000406201824358113E40FF00AB
:104270001F420211B0126A63C24FDE118243D01195
:10428000F2405A00EB11B240B3FFB0118243B211B9
:1042900082430E11C2435A11C2435711C243101137
:1042A000F24007001111C2431211C2431311B24070
:1042B000F0111411B240000184018243860182434F
:1042C000880182438A01B24000018E01B2400001A0
:1042D000660182438C01B24080002011B2405F2809
:1042E0002211B240A0022411B240190226118243C9
:1042F0004011824342118243381182433A11824372
:104300003C1182433E118243301182433211824379
:10431000341182433611C2435D13B0127E564F935F
:10432000FC234F4BB012D84B32D2D243A0113D40A8
:1043300034000E433F406C11B012A664F2D0C0FFAF
:104340001B00F24011007800F24020007900F2409A
:1043500024007C00C2437D00F24029007B00F24033
:1043600020000500F2F0FEFF7800B012C64B4B4F64
:10437000F24017007000F240A2FF7100E2437400A7
:10438000C2437500C2437300F2D00E001B00F2D08E
:104390000A001A00F2D040000400F2F0FEFF7000A4
:1043A000F2D064001E00F2F0FDFF1E00F2F0E6FF06
:1043B0002200E2D21D00F2F0FEFF2500F2F0FEFF27
:1043C0002400F2F0FEFF2300F2D020001D00F2F0E6
:1043D000BFFF1D003F53FE23F2D040001D005F438E
:1043E000B01240464F43B01240463FB04000FA275B
:1043F0007F401100B01234470E4F3EF0FFF77F4070
:104400001100B012AE487F401200B01234470E4F78
:104410003ED000057F401200B012AE487F40190028
:10442000B01234470E4F3EF0FFFD7F401900B0122E
:10443000AE487F401800B01234470E4F3EF000FEE9
:104440003ED0B0017F401800B012AE487F40170048
:10445000B01234470E4F3ED000207F401700B012FC
:10446000AE487F401500B01234470E4F3EF01F009B
:104470007F401500B012AE487F401C00B012344798
:104480000E4F3ED0FF007F401C00B012AE48B0126D
:10449000F0467F400600B012404692435811B012D9
:1044A000364E4F4BB012D84BB012E04B824EC41177
:1044B000824FC611B2400004C8118243CA115F4244
:1044C000CC117FF0FEFF6FD3C24FCC117F400300B1
:1044D000B0127E4DB012C64B4A4F963CC2930111AA
:1044E0008724B2B0100082011820B2B010008401FD
:1044F0001420B2B0100086011020B2B01000880164
:104500000C20B2B010008A010820B2B010008C015B
:104510000420B2B010008E0107241E4280013EF03C
:1045200000033E9000022E245F4204003FB0C00012
:1045300005245F4271003FF0200026205F42050005
:104540003FB0300005245F4279003FF020001E207C
:104550005F4270001FF31C245F4271003FF0200097
:104560001A245F4272003FF0200018245F4270005E
:104570002FF217245F4270003FF0200015207E408C
:104580000500133C6E43113C6E430F3C6E430D3CE3
:104590007E4005000A3C7E400500073C7E40050049
:1045A000043C7E400500013C6E43B2B01000A00107
:1045B0001924B2B01000A2010524B2B2A2010F2446
:1045C0006E43103C1F42A2013FB000040B241D4269
:1045D00060013DF000033D9000020420023C4E4388
:1045E000013C6E437E90050001286E42C24E0611CA
:1045F0005E4206110E5E1E4E12653ED2814E0000D6
:1046000022D132C203430343F293E4116727B0126D
:104610002A494B4F7F9362274F4AB012D84B4F4BDA
:10462000B012CA54573F32D0F000FD3F3040106501
:104630005E4203003EF02000FB27C24F7F00304166
:10464000F2F0FBFF1D00C24F77005F4202003FF017
:104650004000FB275F427600E2D21D0030417F40E0
:104660000900B012404630415D42EB111E42B211CA
:10467000F2F0FBFF1D00F2403E0077000F4E0E3CB3
:104680005C4202003CF04000FB275C4276005C424A
:1046900002004C93FC377C4FC24C77004C4F4C8E41
:1046A0004C9DEE2B5F4202003FF04000FB275F4233
:1046B0007600E2D21D003041F2F0FBFF1D00F24017
:1046C0007F0077005E4202003EF04000FB275E4222
:1046D00076005E4202004E93FC37C24377005E4292
:1046E00002003EF04000FB27DF4276000000304130
:1046F00021830F41B012B8467F42B01240467F423C
:10470000B012404621533041B012F046B2F0FEFFE5
:1047100084011F4290011F820C11824F0C116F42C5
:10472000B01240461E420C110F43825E2A11826F66
:104730002C113041F2F0FBFF1D007FD04000C24F32
:1047400077005F4202003FF04000FB275F427600A7
:104750005F4202004F93FC37C24377005F42020082
:104760003FF04000FB275E4276004E4E8E105F42C7
:1047700002004F93FC37C24377005F4202003FF0D4
:104780004000FB275F427600E2D21D004F4F0FDE54
:104790003041C2431011D2921111121103207F40F7
:1047A000050030414F4330410B120A1209125D4F90
:1047B00001003DD040885C4F02008C100DDC494D5B
:1047C000CF4D01008D104D4D4A4DCF4D0200CF43CE
:1047D0000400CF4305001B420211CF4B08008B1091
:1047E000CF4B09005C4F07008C105B4F06000CDBC1
:1047F0003C930D24DF430E004D493DD020004C4A30
:104800008C100DDCCF4D01008D10CF4D0200FF400C
:104810005A000000CF4E030039413A413B4130413C
:10482000B24000598E01B2F0FEFF8E0192B38E01AC
:10483000FD271E429E01B2F0FEFF8E0192B38E0153
:10484000FD271F429E010F8E3F9081000A28F253E0
:1048500056005F4256007F93E6235F4257007F5326
:104860000C3C3F9080000C24D25356005F4256000F
:104870004F93D9235F4257005F53C24F5700D33F36
:1048800030411D4290011D820C11824D0C111F42BE
:1048900090013F500028824F9601B24010008601DF
:1048A0000E4D0F43825E2A11826F2C113041F2F0BF
:1048B000FBFF1D00C24F77005F4202003FF0400047
:1048C000FB275F4276005F4202004F93FC370F4E9A
:1048D0008F104F4FC24F77005F4202003FF0400001
:1048E000FB275F4276005F4202004F93FC37C24EC7
:1048F00077005F4202003FF04000FB275F427600F6
:10490000E2D21D0030414F9304245F4219006FD35F
:10491000043C5F4219007FF0FDFFC24F1900F2D244
:104920001900F2F0F7FF190030415F42E4114E4FD9
:104930003E501C116D4EC24DE4117D930220F24396
:104940005C13FE43000030411F4282018F105FF371
:1049500002241F4292013041A29358110220B0124A
:10496000F0463041F2F0FBFF1D00F24099FF770066
:104970005F4202003FF04000FB275F4276005F424B
:1049800002004F93FC37C24377005F4202003FF0C2
:104990004000FB275F4276005F4202004F93FC37E6
:1049A000D2425A1177005F4202003FF04000FB27DD
:1049B0005F427600E2D21D003041F2F0FBFF1D00A5
:1049C000F2407F0077005E4202003EF04000FB278D
:1049D0005E4276000E435D4202004D93FC37C243B7
:1049E00077005D4202003DF04000FB275C4276000C
:1049F0000D4F0D5ECD4C00001E533E900500EB2385
:104A0000E2D21D0030410B120B4F7F407700B012F5
:104A100030465F43B01230462B4B0F4B8F10B01215
:104A200030464F4BB01230463B4130410B120A1218
:104A3000091208129293581164247F400600B012A4
:104A400040465F4228115E4229110F5E021232C2B7
:104A50000343824F320192422211380119423A0136
:104A600032415F422E11021232C20343824F3201A1
:104A70009242241138011A423A0132415F422F1109
:104A8000021232C20343824F320192422611380190
:104A90001B423A0132411C422A111D422C11084B83
:104AA000085A0E480E590F430E5C0F6D824E5C1172
:104AB000824F5E11825E3011826F3211825C34113E
:104AC000826D36110E490F43825E3811826F3A11A2
:104AD0000E4A0F43825E3C11826F3E110E4B0F4314
:104AE000825E4011826F4211824D54113F40541139
:104AF000B012064A92422A11CE113F40CE11B01296
:104B0000064A384139413A413B4130415E4200005A
:104B10003F40D411CF4E0000CF4301005D42010061
:104B20000E4F2E53CE4D0000CE4301005D422500B6
:104B30000E4F2E52CE4D0000CE4301005E422D009E
:104B40003F500600CF4E0000CF430100C24300009B
:104B5000C2430100C2432500C2432D00B2F0FBFF57
:104B6000E001B2F0FBFFE801B2F0FBFFF001F2F070
:104B7000FDFF5900B2F0FDFF6001B2F0EFFF6201EE
:104B8000B2F0EFFF6401B2F0EFFF6601B2F0EFFFA9
:104B90008201B2F0FDFF8001E2D31F00B240104954
:104BA0008401B2F0FEFF840130410B120B4F7F40B5
:104BB0002200B01230465F43B01230466F4BB01245
:104BC00030463B4130410E4232C2034303433EF282
:104BD0005F4301204F4330414F93012432D2304193
:104BE0000B120A1209120812B012C64B4C4F1A428D
:104BF000B6111B42B8111D427001013C0D4F1F42FE
:104C000070010D9FFB231F4260015FF30A241A53BA
:104C10000B631D427001013C0D4F1F4270010D9F3F
:104C2000FB2312C30D1012C30D1012C30D1012C3BB
:104C30000D1012C30D10084D09430E4A0F4B4FEAD9
:104C40000FEA8F104E4E8E100E5E0F6F0E5E0F6FBE
:104C50000E5E0F6F08DE09DF4F4CB012D84B0E48C6
:104C60000F49384139413A413B4130410B120A1258
:104C7000B012E04B1C4268111D426A110A4C0B4DE8
:104C80001A5264111B6266110F9D092802200E9CA6
:104C900006280B9D102809200A9C0D28063C0B9D18
:104CA00004280D9B27280A9C252C0F9B04280B9F6A
:104CB00021280E9A1F2C0C4A0D4B0C8E0D7F0D9344
:104CC00003203C90010418280A4E0B4F3A50000470
:104CD0000B63824A6811824B6A110A4C0B4D3A50A1
:104CE00000FC3B63824A6411824B66113C40000425
:104CF0000D430A3C0C430D43824A6811824B6A11F2
:104D000082436411824366110C5C0C5C0C5C0C5C8D
:104D10000C5C0E5E0E5E0E5E0E5E0E5E1F4270013D
:104D2000013C0F4D1D4270010F9DFB230B4F0B8E5D
:104D30000B9C09281F427001013C0F4E1E4270015E
:104D40000F9EFB230C3C0C8B3C9003000C2C1F4251
:104D50007001013C0F4E1E4270010F9EFB232F532A
:104D6000824F7201033C0C5F824C7201B2F0FEFF75
:104D70006201B2D0100062013A413B4130410B1256
:104D80004B4FB012C64B4E4BFE931C1106201E43D8
:104D9000C29B5C1303240E43013C1E430E930E2062
:104DA000F293E4110320C24BE411043C5E425C1315
:104DB000CE4B1C11C24B5C134B43023C7B400500A5
:104DC000B012D84B4F4B3B4130415F931F24062814
:104DD0006F9324247F9005002D20283C1F42620100
:104DE0008F105FF303241F4272013041B2F0EFFFD6
:104DF00062018293641107208293661104206F433D
:104E0000B0127E4D3041B0126C4C30411F426401F3
:104E10008F105FF30F241F42740130411F4266015F
:104E20008F105FF307241F42760130419253B61171
:104E30008263B8113041B012E04B3D40BA118D4E43
:104E400000008D4F0200BD40800004008D4306002D
:104E5000FDD0030008007F400300B0127E4D3041BA
:104E6000929358114624B012364E92435811D242B2
:104E7000D4110000D242D6110100D242D81125002F
:104E8000D242DA112D00B2F0F7FFE001A2D2E00128
:104E9000B2F0F7FFE801A2D2E801B2F0F7FFF001AB
:104EA000A2D2F001F2F0FEFF5900E2D35900B2F0B5
:104EB000FEFF6001A2D36001B2F0FEFF6201B2D03A
:104EC00010006201B2F0FEFF6401B2D01000640174
:104ED000B2F0FEFF6601B2D010006601B2F0FEFF34
:104EE0008001A2D38001B2F0FEFF8201B2D0100097
:104EF000820130410B120A1209120812071206121F
:104F00000B4D494CCD930D0003245D4D1000013C29
:104F10004D4379904000732CCB4F0B00CB4E0600D5
:104F20000F4E8F104F4FCB4F0700CB4E1200CB4F81
:104F300011006D933228929358116320F2F0FDFF17
:104F4000C211B012C64B474F564B1000B24003007F
:104F500058110A4B48430C3C5E42DE110F4AB01216
:104F6000A847CA490C00D253DE1158533A503400B6
:104F70004896F2233D400D000E4B3E500D003F4041
:104F8000A211B012AC63B0120C4BB01292477F402A
:104F90000300B01240464F47273C929358113120EE
:104FA000F2F0FDFFC211B012C64B4A4FB2400300EF
:104FB00058115E42DE110F4BB012A847CB490C00CE
:104FC0003D400D000E4B3E500D003F40A211B0126F
:104FD000AC63B0120C4BB0122048B01292477F4025
:104FE0000300B01240464F4AB012D84B8293D01102
:104FF00008203E40A2110F4BB0127C52043C6F437C
:10500000023C7F40050036413741384139413A4141
:105010003B413041C24300111D42B4110D930424A1
:105020005F42EA111FF30224D2430011C293001120
:1050300011205F4D07008F105E4D06005C4D0C0087
:105040000EDF5F4D0B00B012F44E4F9303245F430D
:10505000B0127E4D30410B12C29300110D201B4245
:10506000B4110B9F09208243B411B01214503B902D
:105070006C110220C243A0113B4130410B1221832D
:10508000B290030058110920814F0000B0125E4613
:10509000D253DE112F41B012565021533B413041C3
:1050A0000B120A1209120812071206120512041234
:1050B0001742B011824F0C114F43B01240462FF3EC
:1050C000FB27754016000643094348434A43233CE7
:1050D000B012C64B444F7F401300B01234474B4FC1
:1050E0003B90810003383B50D3FE023C3B50D3FF42
:1050F0004F44B012D84B1F42B0113F5003000F9BDA
:1051000006345A53065B079B0434074B023C585342
:10511000095B75530324C2931011DA277A9254283D
:10512000C29310115120B012C64B4B4F4E4A0F463E
:10513000B0127263078F27930A341F4290013F50C9
:105140002001824F9C01B24010008C01383C1F426C
:10515000D0111F930720A243D011B0120847B012FC
:1051600068462D3C2F922D201D4290011D820C116E
:10517000824D0C110E4D0F43825E2A11826F2C114D
:105180008243D011B2F0EEFF8401B24000018401ED
:10519000B0122C4AC29312110224B01258491F4275
:1051A000B2110F9306241E42D211B0127C508243DA
:1051B000B2111F4290011F429401B012604E4F4B3A
:1051C000523C4F4BB012D84BC29310114E20B0122C
:1051D000C64B4A4F1B42B0110B5B0B5B4E480F494D
:1051E000B01272633E4005000F5BB0127263824FD3
:1051F000B0111F42D0111F930720A243D011B0124B
:105200000847B01268462E3C2F922C201D42900178
:105210001D820C11824D0C110E4D0F43825E2A111E
:10522000826F2C118243D011B2F0EEFF8401B240A4
:1052300000018401B0122C4AC29312110224B01250
:1052400058491D42B2110D9307241E42D2110F4D31
:10525000B0127C508243B2111F4290011F42940150
:10526000B012604E4F4AB012D84B344135413641EE
:105270003741384139413A413B4130410B120A1222
:105280000B4F0A4EB012C64B824AD211824BB2115A
:10529000C2435A11C2435D133E402811CE43000061
:1052A000CE430100CE430600CE4307008E430200EA
:1052B0008E4304009243D011B24010498401B012D1
:1052C000D84B1F429001B012A0504F433A413B418E
:1052D00030410B120A120912081207120612374047
:1052E000BA115642C21166B312241A42BA111B42B5
:1052F000BC111C42BE111D42C011084E094F088A44
:10530000097B099D04280D991928089C172C374002
:10531000C4115642CC1166B3CA241A42C4111B42AE
:10532000C6111C42C8111D42CA110E8A0F7B0F9D67
:10533000BE2802200E9CBB281F43013C0F4356F39E
:105340000424F7F0FDFF0800083C084A094B085CFC
:10535000096D87480000874902005F9358249293A3
:105360005811A520B012C64B4A4FA2435811B01293
:105370000C4BB0122048B012924792429001081193
:1053800082430A117F400300B01240464F4AB012D8
:10539000D84BD292111112118A248293D0118720F6
:1053A000B012C64B4A4F5C4213115D4212115E426D
:1053B00011110F4C0F5DB012A463021232C20343ED
:1053C000824F3201B240340038011F423A0132416B
:1053D0003F50F011824F1411C2435D13C243281194
:1053E000C2432911C2432E11C2432F1182432A11F5
:1053F00082432C11A242D011B240104984014F4A7D
:10540000B012D84B1F429001B012A050503CB012C5
:10541000C64BF2E010003100B012D84B1F4204110D
:105420001F53824F0411C293A0114120D24379111E
:10543000D2437C11C24F87118F10C24F8611B01218
:10544000E04BC24E8B110D4F8E108D104EED0EEDB8
:10545000C24E8A11C24F89118F10C24F8811F24378
:105460007211F2437311F2437E11F2437D11F24047
:10547000060077118293B4111A20B2406C11B41156
:10548000F24006007811C29300111C24C24300119F
:105490007C4006003D406C113E437F400600B01248
:1054A000F44E4F930F24D24300118243B4117F4036
:1054B0000300B0127E4D36413741384139413A41FF
:1054C0003B413041D243A011F23F0B120A120912A4
:1054D00008120712061221835F93272406286F9370
:1054E00037247F900300C320603C5D42EA114D9356
:1054F000BE245A42A0113E40B4114C435F434FBDFD
:105500000A24284E8E4300004DCF4C93042038903F
:105510006C1101204A434F5F5C532E537C92EF2362
:10552000C24DEA11C24AA011A23C5A4200114F4A90
:105530000F5F3F50B411284F8F430000B01214503A
:105540004A93952038906C119220C243A0118F3C51
:10555000C293441127201A42E0111B42E211B012FB
:10556000C64B18426411194266111852681119622B
:105570006A11B012D84B824AE011824BE211C24349
:105580004411B012C64B8248681182496A11824A9E
:105590006411824B6611814F0000B0126C4C2F4198
:1055A000B012D84BB012E04B483CB012E04B084E62
:1055B000094FB2F0EFFF6201E2B3C21115240A4EA7
:1055C0000B4F1A82BA111B72BC111642BE11174240
:1055D000C011068A077B0A460B4736930A203B9088
:1055E000FF7F07204D43063C4D433A433B40FF7F3E
:1055F000013C5D43E2B3CC1116240E480F491E82D4
:10560000C4111F72C6111642C8111742CA11068E64
:10561000077F0E460F470F9B03380520069A032C81
:105620000A4E0B4F023C4D9322240B9304381B93DC
:1056300007341A93052C0E480F49B012D252173C6A
:10564000824AE011824BE211D2434411B012C64BA0
:105650008248681182496A11824A6411824B66113C
:10566000814F0000B0126C4C2F41B012D84B215327
:1056700036413741384139413A413B413041F2935B
:10568000E4110824B0122A497F930624B012CA54A8
:105690005F4330414F4330414F4330410F120E12B0
:1056A0000D120C124F43B012CA4D3C413D413E41D8
:1056B0003F41B1C0F000000000130F120E120D1296
:1056C0000C121F422E014F4F12C34F10B012CA4D81
:1056D0003C413D413E413F41B1C0F000000000135C
:1056E0000F120E120D120C12B01248493C413D41EE
:1056F0003E413F41B1C0F000000000130F120E12F6
:105700000D120C120B120A12091208120712315054
:10571000FAFF1F4290011E4294013F50DBFF0F8EA3
:10572000814F04009151040004001F4290011E4269
:1057300096013F50C6FF0F8E814F0200915102002B
:1057400002001F421E01824FDC1192429401161189
:105750002F9302243040D8600F412F52B012064AD6
:10576000E14300000F41B012AA4B1F42D0113F90FD
:10577000030004243F9202243040AE595E421C00D4
:105780002EF302243040AE59F1400B0000000F41CF
:10579000B012AA4B1F4294011F82E811824FE811F8
:1057A000924294010C11B2900600D01102205F4287
:1057B0001C00B2F0EEFF8801B24010498401B190A4
:1057C00009000400952C10510400034303430343D4
:1057D0000343034303430343034303430343034399
:1057E00003430343B01208471B4214111A42B2117B
:1057F0000F4BB012BA495F4B02005E4B0100B290F2
:105800000300D01161204F4F8F104FDE7FF0070053
:105810006F932920DB9A0300030025201E42B2115A
:10582000DE432C001F42D2115D4F03007D53CF4D4C
:1058300003000B24A243D011C2435A113E5034003E
:10584000824EB211B01268463F3CCF930A00272423
:105850005F425A117F9040002224A243D0115F532F
:10586000C24F5A11313C5F425A115F53C24F5A1115
:105870007F90400025201E42D2115F4E03007F53CF
:10588000CE4F03000C24A243D011C2435A11B25090
:105890003400B2111F429401B012A050153CB01256
:1058A0005E46A242D0111F4294013F502001824F18
:1058B0009C01924294010C11B24010008C01043CF6
:1058C000A243D011B0126449B292D01102243040E8
:1058D0003E5B5F425A117F904000DE24B2400700D9
:1058E000D0115F53C24F5A11B012644930403E5B31
:1058F0001B4214111A42B2110F4BB012BA495F4B3E
:1059000002005E4B0100B2900300D0114C204F4FBB
:105910008F104FDE7FF007006F931920DB9A030092
:10592000030015201F42B211DF432C001D42D2118B
:105930005E4D03007E53CD4E03001E249243D011D2
:10594000C2435A113F503400824FB211283CD25307
:105950005A11B0126449F29040005A111E201F42A1
:10596000D211CF93030008249243D011C2435A119D
:10597000B2503400B211133CB0125E46A242D011B4
:105980001F4294013F502001824F9C01924294019A
:105990000C11B24010008C01063C9243D0111F4202
:1059A0009401B012A050B292D011C920753C3F9022
:1059B0000600CC205E421C002EF302243040F25F31
:1059C000F140160000000F41B012AA4B1F42940193
:1059D0001F82E811824FE811924294010C11B2F03B
:1059E000EEFF8801B24010498401B1900900040023
:1059F000562C105104000343034303430343034362
:105A00000343034303430343034303430343034366
:105A1000B01208471F42B2110F9305241E42D21143
:105A2000CE93020021205E4212114E931B245E92FF
:105A300011111824C29350111124F2900700511132
:105A40000D2CB2400700D0110F930224824F0E118B
:105A500092421411B211C2435A11083CC29346112A
:105A600031241A3C0F930524A243D011B01268468A
:105A7000663C5E9211111020B0125E46B2400001E9
:105A80008401D2532E119242E8112411B0122C4AF3
:105A9000C29312113624333CB0125E46423C1D4282
:105AA000B2110D9305241E42D211CE930200112093
:105AB0005E4212114E930B245E9211110824C29380
:105AC00046112F20B0125E46A242D011043C0D9325
:105AD0000724A243D0111F429401B012A0502F3CC2
:105AE0005E9211111E20B24000018401D2532E118A
:105AF000824F2411B0122C4AC29310110224B0120A
:105B000058491F42B2110F9306241E42D211B012FF
:105B10007C508243B2111F4290011F4294013040D9
:105B2000EE62A242D0111F4294013F502001824FE9
:105B30009C01924294010C11B24010008C01D2538E
:105B40002E119242E8112411304032633F9005003B
:105B5000F2205F421C002FF302243040CA60F14063
:105B6000210000000F41B012AA4B1F4294011F8276
:105B7000EC11824FEC11B2F0EEFF88011F4294014C
:105B8000824F0C11A293D01102205E421C00B24041
:105B900010498401B190090004002B2C105104001D
:105BA00003430343034303430343034303430343C5
:105BB000034303430343034303431E4290010E8FF9
:105BC000824E0C1192429001E6117F400A00B01201
:105BD00040461F42E6113F500028824F9601B240D6
:105BE000100086011E420C110F43825E2A11826F43
:105BF0002C111A421411B2400600D0115E42571106
:105C00005D42EB115D534D8E0E5A0F4E0F3C5C42C0
:105C100002004C93FC37C24377005C4202003CF028
:105C20004000FB27DF42760000001F534C4F4C8E94
:105C30004C9DED2BE2D21D005F42EB114E4F5E53A7
:105C4000C24E57110F5ACF93000068341B421411F3
:105C5000C293561106245842121109435742131198
:105C6000313CB0125E465F4B11008F105E4B12004C
:105C70000FDE3F935520EF3F3E4007000F490F577F
:105C8000B012A463021232C20343824F3201B24007
:105C9000340038011E423A0132413E50F011DA9E82
:105CA000030003000E205C4A09008C105F4A0800C4
:105CB0000CDF5D4E09008D105F4E08000DDF0C9D5E
:105CC000052419534998D82B304006635F425D1371
:105CD0005F53C24F5D137F900300192C233C5D423C
:105CE00013114F4E3E4007000F5DB012A463021225
:105CF00032C20343824F3201B240340038011F42A6
:105D00003A0132413F50F011824F14110B3CB2F076
:105D1000EEFF8401B24000018401043CB0125E46F3
:105D2000B012F046D25328111F4222110F5F0F5FAD
:105D30001F52EC11463C2F934D205F421C002FF365
:105D4000022430408060F1402C0000000F41B0126E
:105D5000AA4B1F4294011F821811824F18119242C0
:105D600094010C11B2F0EEFF8801B2401049840199
:105D7000B19009000400152C1051040003430343A3
:105D800003430343034303430343034303430343E3
:105D9000034303430343B0128248B2400300D011CF
:105DA000083CB0125E469243D0111F429401B012DB
:105DB000A050D25329111F4222110F5F0F5F1F52B3
:105DC00018110F5F3E400A00B0125063824F22113B
:105DD000304032633F90070041205F421C002FF3A8
:105DE000022430404A60F140370000000F41B012F9
:105DF000AA4B924294010C11B2F0EEFF8801B2401E
:105E000010498401B19009000400142C10510400C1
:105E10000343034303430343034303430343034352
:105E200003430343034303430343B0128248B24294
:105E3000D011103CB0125E46A242D0111F42940114
:105E40003F502001824F9C01924294010C11B240BC
:105E500010008C01D2532911304032632F9202245A
:105E60001F93BF205E421C002EF3BB24F140420072
:105E700000000F41B012AA4B1F4294011F820C1167
:105E8000824F0C1192429401EC11B2F0EEFF8C01A2
:105E9000B240108984011E4294013E5020035F42AB
:105EA000EB117D4007000F5F7D53FD230F5E824F96
:105EB0009801924294011A11B24010008801D24315
:105EC00010111B421411B2400500D011033C92B3D3
:105ED000880127205F4220003FF2F9270F4BB012C4
:105EE000B8460F4BB012AA4BE29BEB111424B2F050
:105EF000EEFF8801B012F046A242D011B240104924
:105F000084011F4294013F502001824F9C01B24006
:105F100010008C015D3CD2435711513C92B3880173
:105F20000624B012F046B24000018401513C5E42AA
:105F300020003EF2F3274F4F0F5B5E4202004E936C
:105F4000FC37C24377005E4202003EF04000FB2770
:105F5000DF42760000005F4257115F53C24F571176
:105F60007F901A002C201E421411CE930E00222482
:105F70005D4E11008D105F4E12000DDF1D9202115B
:105F800013243D90FEFF16205D4E13008D105F4ED2
:105F900014000DDF1D82EE115C4E15008C105F4E5B
:105FA00016000CDF0D9C0628CE9317000324CE9319
:105FB00018000320C2435611023CD24356115F42DF
:105FC00057115E42EB113E50FDFF4D4F0D9EAF3B12
:105FD0001E420C110F43825E2A11826F2C11304039
:105FE00032633F90060005243F90030002243F9255
:105FF00029205E421C002EF32524F1404D000000B4
:106000000F41B012AA4B1F4294011F82E611824F2A
:10601000E61192429401E811B2F0EEFF86011E42B1
:1060200094013E50A005824E9801924294011A11AB
:10603000B24010008801B24010898401824F2611BD
:10604000304028623F90070019205F421C002FF368
:106050003C24F140580000000F41B012AA4BB2405E
:10606000108984011E4294013E5020035F42EB11CF
:106070007D4007000F5F7D53FD231D3C2F9325209E
:106080005F421C002FF32124F140630000000F4108
:10609000B012AA4B924294011811B24010898401A7
:1060A0001E4294013E5020035F42EB117D400700E9
:1060B0000F5F7D53FD230F5E824F98019242940142
:1060C0001A11B24010008801AF3CB0125E46B01207
:1060D000F046A242D011C43C3F900600A8243F9055
:1060E0000A00CE242F9202243040F462924296019C
:1060F0000C11B2F0EEFF86010F412F53B012064A89
:10610000E14200000F41B012AA4BB1900900020019
:10611000532C10510200034303430343034303433F
:10612000034303430343034303430343034303433F
:10613000B01208471F42D0113F90060008208293FA
:10614000B2116024A243D011B01268466B3C3F905C
:1061500003001820A243D011D2535A11B01264493F
:10616000F29040005A115E201E42D2115F4E030091
:106170007F53CE4F03004624A243D011B2503400C7
:10618000B211343C3F924E20B2400700D011D2539E
:106190005A11B0126449F29040005A1143201F4234
:1061A0000E110F932F24A243D011824FB211B012BF
:1061B000684682430E111C3C1F42B2110F932224E9
:1061C0005E425A115E53C24E5A117E904000132017
:1061D0001D42D2115E4D03007E53CD4E03001224AA
:1061E000A243D0113F503400824FB211B012684622
:1061F000C2435A11173C9243D0111F429601B0126C
:10620000A050103CB0125E46A242D0111F42940131
:106210003F502001824F9C01924296010C11B240E6
:1062200010008C01D2532E11D2532F11823CF14019
:10623000060000000F41B012AA4BB2F0EEFF880139
:10624000B0125E46A242D0111D4298011D821A1161
:10625000824D1A110E4D0F43825E2A11826F2C114E
:10626000B240104984011F4294013F502001824FE7
:106270009C01924294010C11B24010008C01593CD7
:10628000F1400A0000000F41B012AA4BB2F0EEFF3D
:106290008401B2F0EEFF8801B2F0EEFF8C01B01283
:1062A000F0461D429C011D820C11824D0C110E4DB9
:1062B0000F43825E2A11826F2C118243D011B240AB
:1062C00000018401B0122C4AC29312110224B012B0
:1062D00058491F42B2110F9306241E42D211B01228
:1062E0007C508243B2111F4290011F429C01B012A8
:1062F000604E1F3C1F421E014F4F12C34F1019200A
:10630000B0124849163CFB5318003D400D000E4B9F
:106310003E500D003F404611B012AC634E485E53F4
:10632000C24E12115E92111102243040DE5C3040E8
:10633000245D315006003741384139413A413B41F3
:106340003C413D413E413F41B1C0F00000000013DF
:106350007C4010000D4E0E430F5F0E6E0E9D022806
:106360000E8D1FD31C83F8233041B01250630F4EA3
:1063700030410D430F9304343D4003003FE31F536E
:106380000E9303345DE33EE31E530D12B0125063CF
:106390003D416DB302243EE31E535DB302243FE34F
:1063A0001F533041B01272630F4E30410B120A126C
:1063B0000912081207120D9370240F9E6E24342CBC
:1063C0000C4E0CDF1CF31B240C4E0CEF1CF30720AF
:1063D0002D9307280B4E1BF32C430C8B033C0C4DC9
:1063E000013C1C430D8C0A4C094E0B4FFB4900002D
:1063F0001B533A53FB230A4F0A5C0E5C013C0A4FC5
:106400000B4D12C30B100B24094B084E0C4ABC4811
:1064100000002C533953FB230B5B0E5B0A5B1DF30F
:106420003C24EA4E0000393C0E5D0C4F0C5D0B4CD9
:106430000BDE1BF31B240B4C0BEE1BF306203D90D5
:10644000030003280B4E1BF3013C0B4D0D8B094E33
:106450000A4C084B088C3A533953EA490000074A62
:106460000758F9233BE31B530C5B0E5B0B4D12C328
:106470000B100E240A4B084E094C28832983A94887
:1064800000003A53FA230A8B0B4A0B5B0E5B0C5B42
:106490001DF30324DC4EFFFFFFFF37413841394134
:1064A0003A413B4130410B120A12091208123D9049
:1064B0000600092C0C4F043CCC4E00001C533D53ED
:1064C0000D93FA23203C4E4E4B4E0B9303240C4B62
:1064D0008C100BDC1FB306243D53CF4E0000094F38
:1064E0001953013C094F0C4D12C30C100A49084CBA
:1064F0008A4B00002A533853FB230C5C0C591DF3C4
:106500000224CC4E0000384139413A413B413041F0
:02651000001376
:0C6512000000100050009000D000F000CD
:04651E000101010076
:10FFE0002C462C462C462C462C46BA569C562C4663
:10FFF0002C462C462C462C46FC56E0562C460040FF
:0400000300004000B9
:00000001FF
