:104000005542200135D0085A8245E014314000392C
:104010003F4004000F9308249242E01420012F83B4
:104020009F4FAA660011F8233F40DC030F9307243B
:104030009242E01420011F83CF430411F92321830E
:10404000B0126A4C4B4F2D423E40FF003F401C11C6
:10405000B0123266F2430A12F243DD14B240805AC3
:104060002001A242600182432E01A24280018243CC
:104070001E01B240805A2001C2435600F240A6FF02
:104080005700C24358003E4303433E53FD23B24012
:1040900000516601B24024026001B2F0FEFF6601E9
:1040A00092B36601FD271F427601B2F0FEFF660162
:1040B00092B36601FD271E4276010E8F3E900002EC
:1040C0006220B2F0FEFF6601824366018243600116
:1040D000F2F0CFFF57005E4257007EF007007ED01F
:1040E00080FFC24E5700C2435800F2F0FDFF0000AF
:1040F00082439001B2400202800182437001B240CB
:10410000020160011E4280013EF0CFFF3ED0200040
:10411000824E80011E4260013EF0CFFF3ED0200063
:10412000824E6001C2432600C2432E00C2431B00E0
:10413000C2431F00C2433300C2433700C2432100C1
:10414000F240E0FF2200F24030002900F2407B0004
:104150002A00C2431900F240F1FF1A00F240DDFFCD
:104160001D00F240FDFF1E00F2433100F243320019
:10417000C2433500F2433600C2432500C2432D003E
:104180001F427001153C3E9001020928F25356006F
:104190005F4256007F938123F25357007E3FD253F4
:1041A00056005F4256004F937823D2535700753F15
:1041B0001E4270010E8F3E900128FA2BE2D31A00A6
:1041C000F2D21A00F2D080FF1E00F2D010001E00C2
:1041D000F2D080FF1D00F2D010001D000343034306
:1041E000F2F0EFFF1D00F2F0F7FF19005F43B0128D
:1041F0002C4A4F43B0122C4A5F43B0122C4A5F4303
:10420000B0122C4A5F43B0122C4A4F43B0122C4AD2
:104210004F43B0122C4A5F43B0122C4AF2D0100028
:104220001D00F2D21900E2D31900F2D010003200C2
:10423000F2D020003200F2D040003200F2D0100064
:104240003100F2D020003100F2D040003100B01235
:10425000DC574F93FC231F4202111F53824F54110E
:1042600082435611B2F0EFFF6201B240004062019A
:1042700082434C113E40FF001F420211B012F6640F
:10428000C24F04128243F411F2405A001412B24099
:10429000B3FFD4118243D61182430E11C2434E1193
:1042A000C2434B11C2431011F24007001111C24327
:1042B0001211C2431311B2401A121411B24000017C
:1042C0008401824386018243880182438A01B2408D
:1042D00000018E01B2400001660182438C01B240B0
:1042E00080002011B2405F282211B2402703241120
:1042F000B240F205261182434011824342118243AB
:10430000381182433A1182433C1182433E11824369
:104310003011824332118243341182433611C24339
:10432000DE14B012DC574F93FC234F4BB0127C4C81
:1043300032D2D243C5113D4065000E433F4060116B
:10434000B0123266F2D0C0FF1B00F24011007800BC
:10435000F24020007900F24024007C00C2437D003E
:10436000F24029007B00F24020000500F2F0FEFF41
:104370007800B0126A4C4B4FF24017007000F240C8
:10438000A2FF7100E2437400C2437500C243730090
:10439000F2D00E001B00F2D00A001A00F2D040004A
:1043A0000400F2F0FEFF7000F2D064001E00F2F094
:1043B000FDFF1E00F2F0E6FF2200E2D21D00F2F047
:1043C000FEFF2500F2F0FEFF2400F2F0FEFF2300C6
:1043D000F2D020001D00F2F0BFFF1D003F53FE236E
:1043E000F2D040001D005F43B01238464F43B01278
:1043F00038463FB04000FA277F401100B012EA462D
:104400000E4F3EF0FFF77F401100B012B4487F40DE
:104410001200B012EA460E4F3ED000057F40120057
:10442000B012B4487F401900B012EA460E4F3EF079
:10443000FFFD7F401900B012B4487F401800B01251
:10444000EA460E4F3EF000FE3ED079017F40180054
:10445000B012B4487F401700B012EA460E4F3ED06B
:1044600000207F401700B012B4487F401500B01202
:10447000EA460E4F3EF01F007F401500B012B448D0
:104480007F401C00B012EA460E4F3ED0FF007F4036
:104490001C00B012B448B01264487F400600B0124D
:1044A000384692434C11B012EA4E4F4BB0127C4C3E
:1044B000B012944C824EE811824FEA11B2400004CF
:1044C000EC118243EE115F42F0117FF0FEFF6FD3DB
:1044D000C24FF0117F400300B012324EB0126A4C4E
:1044E0004A4F963CC29301118724B2B0100082015A
:1044F0001820B2B0100084011420B2B01000860160
:104500001020B2B0100088010C20B2B010008A0157
:104510000820B2B010008C010420B2B010008E014F
:1045200007241E4280013EF000033E9000022E242C
:104530005F4204003FB0C00005245F4271003FF0BD
:10454000200026205F4205003FB0300005245F4276
:1045500079003FF020001E205F4270001FF31C24F2
:104560005F4271003FF020001A245F4272003FF06A
:10457000200018245F4270002FF217245F42700061
:104580003FF0200015207E400500133C6E43113C97
:104590006E430F3C6E430D3C7E4005000A3C7E405E
:1045A0000500073C7E400500043C7E400500013CC0
:1045B0006E43B2B01000A0011924B2B01000A201E5
:1045C0000524B2B2A2010F246E43103C1F42A20187
:1045D0003FB000040B241D4260013DF000033D90FC
:1045E00000020420023C4E43013C6E437E900500D5
:1045F00001286E42C24E06115E4206110E5E1E4E2C
:104600009E663ED2814E000022D132C20343034354
:10461000F2930A126727B012504A4B4F7F936227DA
:104620004F4AB0127C4C4F4BB0123656573F32D0E7
:10463000F000FD3F30409C66E2D21D00F2F0FBFF2F
:104640001D00C24F77005F4202003FF04000FB2791
:104650005F427600E2D21D0030417F400900B01277
:10466000384630415D4214121E42D611E2D21D007E
:10467000F2F0FBFF1D00F2403E0077000F4E0E3CB3
:104680005C4202003CF04000FB275C4276005C424A
:1046900002004C93FC377C4FC24C77004C4F4C8E41
:1046A0004C9DEE2B5F4202003FF04000FB275F4233
:1046B0007600E2D21D004F43B01238463FF0200092
:1046C0000224B0125A4630411F4290011F820C1141
:1046D000824F0C116F42B01238461E420C110F432C
:1046E000825E2A11826F2C113041E2D21D00F2F05D
:1046F000FBFF1D007FD04000C24F77005F420200E9
:104700003FF04000FB275F4276005F4202004F937C
:10471000FC37C24377005F4202003FF04000FB27B6
:104720005E4276004E4E8E105F4202004F93FC3781
:10473000C24377005F4202003FF04000FB275F4228
:104740007600E2D21D004F4F0FDE30415E42030083
:104750003EF02000FB27C24F7F003041E2D21D0017
:10476000F2F0FBFF1D00F2407F0077005D42020087
:104770003DF04000FB275D4276000D4F0F3C5C4250
:1047800002004C93FC37C24377005C4202003CF0CD
:104790004000FB27DD42760000001D534C4D4C8F3E
:1047A0004C9EED2BE2D21D003041C2431011D2923B
:1047B0001111121103207F40050030414F43304159
:1047C000B24000598E01B2F0FEFF8E0192B38E010D
:1047D000FD271E429E01B2F0FEFF8E0192B38E01B4
:1047E000FD271F429E010F8E3F9081000A28F25341
:1047F00056005F4256007F93E6235F4257007F5387
:104800000C3C3F9080000C24D25356005F4256006F
:104810004F93D9235F4257005F53C24F5700D33F96
:10482000B2F0FEFF8E013041E2D21D00F2F0FBFF3C
:104830001D00F2407F0077005E4202003EF0400023
:10484000FB275E4276005E4202004E93FC37C24375
:1048500077005E4202003EF04000FB27DF42760018
:104860000000304121830F41B01228487F42B0122E
:1048700038467F42B0123846215330411C429001E5
:104880001C820C11824C0C11924290010C121F429E
:1048900090013D4026112F5D1F5DFEFF824F960166
:1048A000B240100086010E4C0F438D5E04008D6FE8
:1048B00006003041E2D21D00F2F0FBFF1D00C24FA6
:1048C00077005F4202003FF04000FB275F42760026
:1048D0005F4202004F93FC370F4E8F104F4FC24F75
:1048E00077005F4202003FF04000FB275F42760006
:1048F0005F4202004F93FC37C24E77005F420200D6
:104900003FF04000FB275F427600E2D21D003041BD
:104910000B120A1209120B4F494EA2934C1102209E
:10492000B01264480F4B3F501A004B435C3C5D4F44
:10493000EDFF8D105C4FECFF0DDC1C4202110D9C55
:1049400012243D9310245D4FF7FF8D105A4FF8FF4E
:104950000DDA0D9C08241C433D9306243D90FEFF78
:1049600003240C43013C1C430C933A24FF900600A3
:10497000F1FF36206D4F8D105E4F01000DDE1DF3EF
:1049800005245D4231007DF0EFFF043C5D423100C3
:104990007DD01000C24D31006D4F8D105E4F010073
:1049A0000DDE2DF305245D4231007DF0DFFF043C78
:1049B0005D4231007DD02000C24D31006D4F8D1021
:1049C0005E4F01000DDE2DF205245D4231007DF0C9
:1049D000BFFF043C5D4231007DD04000C24D31003C
:1049E0005B533F5065004B99A2235D4213115F4218
:1049F00012115E4211110F5DB0123065C24F1311DA
:104A00004F4F021232C20343824F3201B24065005F
:104A100038011F423A0132413F501A12824F14119D
:104A2000C243121139413A413B4130414F93042472
:104A30005F4219006FD3043C5F4219007FF0FDFF15
:104A4000C24F1900F2D21900F2F0F7FF19003041FD
:104A50005F420A124E4F3E501C116D4EC24D0A125B
:104A60007D930220F243DD14FE43000030411F42DB
:104A700082018F105FF302241F42920130410B121A
:104A80000A120912081292934C115B247F4006000F
:104A9000B01238465F4228115E4229110F5E0212A1
:104AA00032C20343824F320192422211380119422D
:104AB0003A0132415F422E11021232C20343824F49
:104AC00032019242241138011A423A0132415F42C6
:104AD0002F11021232C20343824F32019242261139
:104AE00038011B423A0132411C422A111D422C114D
:104AF000084B085A0E480E590F430E5C0F6D824E3C
:104B00005011824F5211825E3011826F3211825CDD
:104B10003411826D36110E490F43825E3811826F57
:104B20003A110E4A0F43825E3C11826F3E110E4BCA
:104B30000F43825E4011826F4211824D4811824CB8
:104B4000F211384139413A413B413041E2D21D0036
:104B5000F2F0FBFF1D00F24099FF77005F42020078
:104B60003FF04000FB275F4276005F4202004F9318
:104B7000FC37C24377005F4202003FF04000FB2752
:104B80005F4276005F4202004F93FC37D2424E11E3
:104B900077005F4202003FF04000FB275F42760053
:104BA000E2D21D0030415E4200003F40F811CF4E7E
:104BB0000000CF4301005D4201000E4F2E53CE4D49
:104BC0000000CE4301005D4225000E4F2E52CE4D17
:104BD0000000CE4301005E422D003F500600CF4E44
:104BE0000000CF430100C2430000C2430100C243A2
:104BF0002500C2432D00B2F0FBFFE001B2F0FBFF45
:104C0000E801B2F0FBFFF001F2F0FDFF5900B2F055
:104C1000FDFF6001B2F0EFFF6201B2F0EFFF64014F
:104C2000B2F0EFFF6601B2F0EFFF8201B2F0FDFFDC
:104C30008001E2D31F00B24010498401B2F0FEFFB0
:104C4000840130410B120B4F7F407700B0124C476C
:104C50005F43B0124C472B4B0F4B8F10B0124C4799
:104C60004F4BB0124C473B4130410E4232C20343DE
:104C700003433EF25F4301204F4330414F930124F1
:104C800032D23041B0126A4CF2E010003100B01262
:104C90007C4C30410B120A1209120812B0126A4CF5
:104CA0004C4F1A42DA111B42DC111D427001013CCB
:104CB0000D4F1F4270010D9FFB231F4260015FF3E8
:104CC0000A241A530B631D427001013C0D4F1F4211
:104CD00070010D9FFB2312C30D1012C30D1012C3E0
:104CE0000D1012C30D1012C30D10084D09430E4ACA
:104CF0000F4B4FEA0FEA8F104E4E8E100E5E0F6F65
:104D00000E5E0F6F0E5E0F6F08DE09DF4F4CB012A4
:104D10007C4C0E480F49384139413A413B413041C2
:104D20000B120A12B012944C1C425C111D425E110F
:104D30000A4C0B4D1A5258111B625A110F9D09282B
:104D400002200E9C06280B9D102809200A9C0D2885
:104D5000063C0B9D04280D9B27280A9C252C0F9BA5
:104D600004280B9F21280E9A1F2C0C4A0D4B0C8EE9
:104D70000D7F0D9303203C90010418280A4E0B4F21
:104D80003A5000040B63824A5C11824B5E110A4C5C
:104D90000B4D3A5000FC3B63824A5811824B5A112A
:104DA0003C4000040D430A3C0C430D43824A5C1115
:104DB000824B5E118243581182435A110C5C0C5C89
:104DC0000C5C0C5C0C5C0E5E0E5E0E5E0E5E0E5E8F
:104DD0001F427001013C0F4D1D4270010F9DFB23CE
:104DE0000B4F0B8E0B9C09281F427001013C0F4E8C
:104DF0001E4270010F9EFB230C3C0C8B3C90030069
:104E00000C2C1F427001013C0F4E1E4270010F9E80
:104E1000FB232F53824F7201033C0C5F824C7201C3
:104E2000B2F0FEFF6201B2D0100062013A413B4194
:104E300030410B124B4FB0126A4C4E4BFE931C117B
:104E400006201E43C29BDD1403240E43013C1E4377
:104E50000E930E20F2930A120320C24B0A12043C56
:104E60005E42DD14CE4B1C11C24BDD144B43023CA1
:104E70007B400500B0127C4C4F4B3B4130415F936F
:104E80001F2406286F9324247F9005002D20283CA2
:104E90001F4262018F105FF303241F4272013041F1
:104EA000B2F0EFFF620182935811072082935A11EA
:104EB00004206F43B012324E3041B012204D3041C9
:104EC0001F4264018F105FF30F241F4274013041B1
:104ED0001F4266018F105FF307241F4276013041A5
:104EE0009253DA118263DC113041B012944C3D4090
:104EF000DE118D4E00008D4F0200BD408000040089
:104F00008D430600FDD0030008007F400300B0126F
:104F1000324E30410B120A12091221830B4F929329
:104F20004C1178241E4208111F420A111E525011C2
:104F30001F6252110C4B0D430E5C0F6D7D4007003C
:104F400012C30F100E107D53FB231C4212120D438F
:104F50000E5C0F6D0A4F1E42DA111F42DC114B43EB
:104F6000033C5B530E4C0F4D0C4E0D4F1C530D6309
:104F7000494B099AF62B824EDA11824FDC11814A95
:104F800000000F41B012444CB012EA4E92434C1153
:104F9000D242F8110000D242FA110100D242FC11B3
:104FA0002500D242FE112D00B2F0F7FFE001A2D29F
:104FB000E001B2F0F7FFE801A2D2E801B2F0F7FF9A
:104FC000F001A2D2F001F2F0FEFF5900E2D3590045
:104FD000B2F0FEFF6001A2D36001B2F0FEFF6201F9
:104FE000B2D010006201B2F0FEFF6401B2D0100036
:104FF0006401B2F0FEFF6601B2D010006601B2F0AB
:10500000FEFF8001A2D38001B2F0FEFF8201B2D088
:1050100010008201215339413A413B4130410B128A
:105020000A120912081207120B4D4A4CCD930D00BB
:1050300003245D4D1000013C4D437A904000C92C83
:10504000CB4F0B00CB4E06000F4E8F104F4FCB4F68
:105050000700CB4E1200CB4F11006D935A2892934C
:105060004C11B920F2F0FDFFE611B0126A4C484F26
:105070005F4B1000B24003004C11D24300120E4BA4
:105080004C43323C57420412FE4041000100FE40B6
:1050900088FF0200CE430400CE4305001D420211EA
:1050A000CE4D08008D10CE4D09005D4E07008D10CD
:1050B000594E06000DD93D930524DE430E00FE40F7
:1050C00061000100FE405A000000CE470300CE4AB6
:1050D0000C00CE435D00CE435900CE435A00D2535C
:1050E00004125C533E5065004C9FCC233D400D00A4
:1050F0000E4B3E500D003F40C611B0123865B01245
:10510000A64BB012AA477F400300B01238464F4862
:10511000553C92934C115F20F2F0FDFFE611B01266
:105120006A4C494FB24003004C11C24300125F4227
:105130000412FB4041000100FB4088FF0200CB430A
:105140000400CB4305001E420211CB4E08008E1016
:10515000CB4E09005E4B07008E105D4B06000EDD46
:105160003E930524DB430E00FB4061000100FB4041
:105170005A000000CB4F0300CB4A0C00CB435D002C
:10518000CB435900CB435A003D400D000E4B3E50DF
:105190000D003F40C611B0123865B012A64B1E423A
:1051A0007001013C0E4D1D4270010E9DFB23824E8D
:1051B0001212B012C047B012AA474F49B0127C4C2D
:1051C0008293F41108203E40C6110F4BB012F453E5
:1051D000043C6F43023C7F40050037413841394170
:1051E0003A413B4130410B120A120912494F0A4E13
:1051F0004D4F0D5D8D43D811C24300111D42D81192
:105200000D9304245F4210121FF30224D2430011B5
:10521000C293001111205B4D07008B105E4D0600FC
:105220005C4D0C000EDB5F4D0B00B0121E504F9317
:1052300003245F43B012324E49930A203A90601122
:105240000720C243C511CA935D000224B012844CEA
:1052500039413A413B413041C293001107201E427F
:10526000D8110E9F03204F43B012E65130412183E5
:10527000B29003004C110920814F0000B0125A4631
:10528000D25304122F41B0125852215330410B1205
:105290000A1209120812071206121842D411824F7C
:1052A0000C114F43B01238462FF3FB2776401600FF
:1052B00007430A4349434B431D3C7F401300B01250
:1052C000EA464D4F3D90810003383D50D3FE023CED
:1052D0003D50D3FF1F42D4113F5003000F9D0634B1
:1052E0005B53075D089D0434084D023C59530A5D29
:1052F0007653032492B38401E0276B921B2892B368
:10530000840118204E4B0F47B012FE64088F38906E
:1053100006000A341F4290013F50CE56824F9C0136
:10532000B24010008C015F3C1F42F4111F931824FF
:105330002F921F2492B3840156201B42D4110B5B81
:105340000B5B4E490F4AB012FE643E4005000F5BF6
:10535000B012FE64824FD4111F42F4111F93072034
:10536000A243F411B012C846B01264463C3C2F92DE
:105370003A201D4290011D820C11824D0C110E4DE0
:105380000F43825E2A11826F2C118243F411B2F016
:10539000EEFF8401B24000018401B0127E4AC29344
:1053A000101113245F421311021232C20343824FC1
:1053B0003201B240650038011F423A0132415E427B
:1053C00012113F501A12B01210491F42D6110F93FA
:1053D0000424B0126E528243D6111F4290011F82E4
:1053E0009401B012144F36413741384139413A41A6
:1053F0003B4130410B120A1209120A4F094EB012FA
:105400006A4C4B4F8249F611824AD611C2434E1163
:10541000C243DE14C2432811C2432911C2432E11D4
:10542000C2432F1182432A1182432C119243F4115B
:10543000B24010498401924290010C117F40030058
:10544000B012384692B3840104201F429001B0127A
:105450008E524F4BB0127C4C4F4339413A413B4145
:1054600030410B120A1209120812071206123740B5
:10547000DE115642E61166B312241A42DE111B42B7
:10548000E0111C42E2111D42E411084E094F088A46
:10549000097B099D04280D991928089C172C374071
:1054A000E8115642F01166B3B8241A42E8111B42C3
:1054B000EA111C42EC111D42EE110E8A0F7B0F9D6A
:1054C000AC2802200E9CA9281F43013C0F4356F331
:1054D0000424F7F0FDFF0800083C084A094B085C6B
:1054E000096D87480000874902005F934D2492931D
:1054F0004C119320B0126A4C4A4FD29211111211E2
:1055000003248293F41109248243F411C24312113B
:10551000C2431311B012EA4E333CC243DE14C243FD
:105520002811C2432911C2432E11C2432F118243B5
:105530002A1182432C11A242F411B2401049840175
:10554000A2434C11B012A64B1E427001013C0E4FFB
:105550001F4270010E9FFB23824E1212B012C047F1
:10556000B012AA47924290010C117F400300B01282
:10557000384692B3840104201F429001B0128E522B
:105580004F4AB0127C4C493C1F4204111F53824FBA
:105590000411C293C5114120D2436D11D243701141
:1055A000C24F7B118F10C24F7A11B012944CC24E71
:1055B0007F110D4F8E108D104EED0EEDC24E7E11EF
:1055C000C24F7D118F10C24F7C11C2436611C2437E
:1055D0006711C2437211C2437111F24006006B1190
:1055E0008293D8111A20B2406011D811F2400600FF
:1055F0006C11C29300111C24C24300117C400600B0
:105600003D4060110E437F400600B0121E504F9384
:105610000F24D24300118243D8117F400300B012FF
:10562000324E36413741384139413A413B413041B0
:10563000D243C511F23F0B120A12091208120712C7
:10564000061221835F932A2406286F9330247F90CB
:105650000300BC20593CC2931012B8243840D81122
:105660004B435A435E4210124ABE12242F488843CD
:1056700000004ECAC24E10124B930A203F90601198
:105680000720C243C511CF935D000224B012844CA1
:105690004A5A5B5328537B92E523983C5F420011A2
:1056A0004E4F0E5E1E4ED811B012E6518F3CC29383
:1056B000441127201A4206121B420812B0126A4CEB
:1056C0001842581119425A1118525C1119625E1190
:1056D000B0127C4C824A0612824B0812C24344111B
:1056E000B0126A4C82485C1182495E11824A58119C
:1056F000824B5A11814F0000B012204D2F41B01241
:105700007C4CB012944C483CB012944C084E094F5B
:10571000B2F0EFFF6201E2B3E61115240A4E0B4F1F
:105720001A82DE111B72E0111642E2111742E411D7
:10573000068A077B0A460B4736930A203B90FF7F79
:1057400007204D43063C4D433A433B40FF7F013C1D
:105750005D43E2B3F01116240E480F491E82E81192
:105760001F72EA111642EC111742EE11068E077FE6
:105770000E460F470F9B03380520069A032C0A4E4E
:105780000B4F023C4D9322240B9304381B93073498
:105790001A93052C0E480F49B0126254173C824AE6
:1057A0000612824B0812D2434411B0126A4C82484E
:1057B0005C1182495E11824A5811824B5A11814F05
:1057C0000000B012204D2F41B0127C4C21533641C5
:1057D0003741384139413A413B413041F2930A1255
:1057E0000824B012504A7F930624B01236565F4305
:1057F00030414F4330414F4330410F120E120D12D2
:105800000C124F43B0127E4E3C413D413E413F4160
:10581000B1C0F000000000130F120E120D120C1296
:105820001F422E014F4F12C34F10B0127E4E3C410B
:105830003D413E413F41B1C0F000000000130F1256
:105840000E120D120C12B0126E4A3C413D413E4107
:105850003F41B1C0F000000000130F120E120D12F4
:105860000C120B120A1209120812071221821F428F
:1058700090011E4294013F50DBFF0F8E0F5F814F5E
:1058800002001E4290011D4296013E50CBFF0E8D3C
:105890000E5E814E00001D421E01824D0212924298
:1058A000940116112D930224304048621E42F411D7
:1058B0003E90030004243E92022430400A5B5D4285
:1058C0001C002DF3022430400A5B1D4294011D820E
:1058D0000E12824D0E12924294010C113E9006005F
:1058E00002205E421C00B2F0EEFF8801B240104977
:1058F00084013F900900A62C10510200034303438A
:105900000343034303430343034303430343034367
:10591000034303430343B012C8461B4214111A4207
:10592000D6117E4005000F4BB0125C475F4B020062
:105930005E4B0100B2900300F41170204F4F8F10A6
:105940004FDE7FF007006F933820DB9A03000300DF
:1059500034201E42D611DE435D001F42F6115D4F1A
:1059600003007D53CF4D03000B24A243F411C24327
:105970004E113E506500824ED611B01264464E3C28
:10598000CF930A000B245F424E117F904000062403
:10599000A243F4115F53C24F4E11403CB0125A461D
:1059A0009243F4117F402200B0124C475F43B01283
:1059B0004C476F43B0124C47203C5F424E115F533F
:1059C000C24F4E117F90400025201E42F6115F4EBF
:1059D00003007F53CE4F03000C249243F411C243C3
:1059E0004E11B2506500D6111F429401B0128E5272
:1059F000153CB0125A46A242F4111F4290013F508A
:105A0000CE56824F9C01924294010C11B24010007C
:105A10008C01043CA243F411B0124C4BB292F4112D
:105A200002243040AC5C5F424E117F904000D9248C
:105A3000B2400700F4115F53C24F4E11B0124C4BED
:105A40003040AC5C1B4214111A42D6117E40050056
:105A50000F4BB0125C475F4B02005E4B0100B290EF
:105A60000300F4114E204F4F8F104FDE7FF00700E0
:105A70006F931920DB9A0300030015201F42D611F3
:105A8000DF435D001D42F6115E4D03007E53CD4E97
:105A900003001E249243F411C2434E113F5065008F
:105AA000824FD6112A3CD2534E11B0124C4BF29079
:105AB00040004E111E201F42F611CF930300082410
:105AC0009243F411C2434E11B2506500D611153CF9
:105AD000B0125A46A242F4111F4290013F50CE56D6
:105AE000824F9C01924294010C11B24010008C0133
:105AF000083C9243F411C2434E111F429401B0126C
:105B00008E52B292F411D2206C3C3E900600D52009
:105B10005D421C002DF30224304088611E42940136
:105B20001E820E12824E0E12924294010C11B2F09D
:105B3000EEFF8801B240104984013F900900542CC7
:105B4000105102000343034303430343034303434E
:105B50000343034303430343034303430343B01299
:105B6000C8461E42D6110E9305241F42F611CF934C
:105B700002002320C29310111E24D292111112117F
:105B80001A241F424611CF930A001124FF900700E8
:105B90000B000D2CB2400700F4110E930224824E2C
:105BA0000E1192421411D611C2434E11083CCF93EC
:105BB00000002F24163C0E930524A243F411B012CA
:105BC0006446743CD292111112110B20B0125A4645
:105BD000B24000018401D2532E1192420E122411C0
:105BE000313CB0125A46543C1F42D6110F93052443
:105BF0001D42F611CD9302001320C29310110E2402
:105C0000D292111112110A241F424611CF930000A3
:105C10003F20B0125A46A242F411043C0F930724CD
:105C20009243F4111F429401B0128E523F3CD29223
:105C3000111112112D20B24000018401D2532E11F6
:105C4000824E2411B0127E4AC293101113245F4277
:105C50001311021232C20343824F3201B240650077
:105C600038011F423A0132415E4212113F501A126E
:105C7000B01210491F42D6110F930424B0126E5275
:105C80008243D6111F4290011E429401304080642D
:105C9000A242F4111F4290013F50CE56824F9C0108
:105CA000924294010C11B24010008C01D2532E117B
:105CB00092420E1224113040C0643E90050002242E
:105CC0003040D45E5E421C002EF3022430403A6223
:105CD0001E4294011E821612824E1612B2F0EEFF80
:105CE00088011E429401824E0C11B2401049840179
:105CF0003F900900B32C10510200034303430343B8
:105D00000343034303430343034303430343034363
:105D1000034303431F4290010F8E824F0C119242A6
:105D200090010C127F400A00B01238461F42261123
:105D30001F520C121F522411824F9601B2401000C4
:105D400086011E420C110F43825E2A11826F2C11B4
:105D50001A421411B2400600F4115D424B115E422A
:105D600014125E534F4D4E8D0F5AB0125C475F4276
:105D700014124E4F5E53C24E4B110F5ACF93000078
:105D800068341B421411C2934A110624584212115E
:105D9000094357421311313CB0125A465F4B110070
:105DA0008F105E4B12000FDE3F935520EF3F3E40B9
:105DB00007000F490F57B0123065021232C2034379
:105DC000824F3201B240650038011E423A01324131
:105DD0003E501A12DA9E030003000E205C4A0900AE
:105DE0008C105F4A08000CDF5D4E09008D105F4E7D
:105DF00008000DDF0C9D052419534998D82B30401D
:105E00009A645F42DE145F53C24FDE147F9003003A
:105E1000192C573C5D4213114F4E3E4007000F5D59
:105E2000B0123065021232C20343824F3201B240D7
:105E3000650038011F423A0132413F501A12824F29
:105E400014113F3CB2F0EEFF8401B2400001840126
:105E5000383CB0125A46B0126448333C1E4214110A
:105E6000A242F4115F424B115D4214125D534D8FFB
:105E70000E5F0F4E0F3C5C4202004C93FC37C24356
:105E800077005C4202003CF04000FB27DF427600D6
:105E900000001F534C4F4C8E4C9DED2BE2D21D0049
:105EA0005F4214125F53C24F4B111F4290013F508B
:105EB000CE56824F9C01924294010C11B2401000C8
:105EC0008C01D25328111F4222110F5F0F5F1F5206
:105ED00016123F3C2E9346205E421C002EF30224F5
:105EE0003040FC611E4294011E821811824E18112E
:105EF000924294010C11B2F0EEFF8801B2401049B9
:105F000084013F900900152C105102000343034304
:105F10000343034303430343034303430343034351
:105F2000034303430343B0127C48B2400300F4111F
:105F3000083CB0125A469243F4111F429401B01229
:105F40008E52D25329111F4222110F5F0F5F1F5231
:105F500018110F5F3E400A00B012DC64824F22111C
:105F60003040C0643E9007003A205E421C002EF391
:105F700002243040D261924294010C11B2F0EEFF43
:105F80008801B240104984013F900900142C10513F
:105F90000200034303430343034303430343034315
:105FA000034303430343034303430343B0127C48C7
:105FB000B242F411103CB0125A46A242F4111F42F0
:105FC00090013F50CE56824F9C01924294010C1199
:105FD000B24010008C01D25329113040C0642E927F
:105FE00002241E93C9205D421C002DF3C5241E42CD
:105FF00094011E820C11824E0C11924294011612D1
:10600000B2F0EEFF8C013F9001041328B0126448F7
:10601000A242F4111F4290013F50CE56824F9C0184
:106020001E420C110F43825E2A11826F2C113040E8
:10603000CE63B240108984011E4294013E50200379
:106040005F4214127D4007000F5F7D53FD230F5EFA
:10605000824F9801924294011A11B24010008801B7
:106060001B421411B2400500F411033C92B38801A5
:1060700027205F4220003FF2F9270F4BB01228483B
:10608000E29B14121724B2F0EEFF8801B0126448AC
:10609000A242F411B240104984011F4290013F50C6
:1060A000CE56824F9C01924294010C11B2401000D6
:1060B0008C01593CD2434B114B3C92B388010624CE
:1060C000B0126448B240000184014D3C5F422000A0
:1060D0003FF2F3274E4E0E5B5F4202004F93FC37B8
:1060E000C24377005F4202003FF04000FB27DE42E0
:1060F000760000005F424B115F53C24F4B117F90FF
:106100001A0026201E421411CE930E001F205D4E51
:1061100011008D105F4E12000DDF1D92021116242A
:106120003D90FEFF13245D4E13008D105F4E140052
:106130000DDF1D8218125C4E15008C105F4E16008C
:106140000CDF0D9C032CC2434A11023CD2434A117E
:106150005E424B115F4214123F50FDFF4D4E0D9FAA
:10616000B53BE2D21D001E420C110F43825E2A1184
:10617000826F2C113040C0643E90060005243E9092
:10618000030002243E9222205F421C002FF31E24B3
:106190001F4294011F820C12824F0C1292429401F2
:1061A0000E12B2F0EEFF86011E4294013E50A00591
:1061B000824E9801924294011A11B2401000880157
:1061C000B24010898401824F2611DD3C3E900700C9
:1061D00013205F421C002FF33024B2401089840149
:1061E0001E4294013E5020035F4214127D4007007E
:1061F0000F5F7D53FD23173C2E931F205F421C0031
:106200002FF31B24924294011811B240108984018B
:106210001E4294013E5020035F4214127D4007004D
:106220000F5F7D53FD230F5E824F980192429401D0
:106230001A11B24010008801A63CB0125A46B012A2
:106240006448A242F411BA3C3D9006009F243D9060
:106250000A00C4242D9202243040886492429601A0
:106260000C11B2F0EEFF86013E9009004A2C20513D
:1062700003430343034303430343034303430343EE
:10628000034303430343034303431F42F4113F907B
:10629000060008208293D6116624A243F411B0129E
:1062A000C846493C3F9003000D20A243F411B012B0
:1062B000C846D2534E11B0124C4BF29040004E11D2
:1062C00060202C3C3F925D20B2400700F411B012D8
:1062D000C846D2534E11B0124C4BF29040004E11B2
:1062E00050201F420E110F930924A243F411824F34
:1062F000D611B012644682430E111F3CB0125A46AA
:10630000323C8293D6112F24B012C8465F424E1100
:106310005F53C24F4E117F90400017201E42F6116E
:106320005F4E03007F53CE4F03000A24A243F411B3
:10633000B2506500D611B0126446C2434E11213CE2
:10634000B0125A469243F411103CB0125A460F4113
:10635000B012444C9243F411C2434E111F429601B5
:10636000B0128E520E3CA242F4111F4290013F50D7
:10637000CE56824F9C01924296010C11B240100001
:106380008C01D2532E11D2532F119A3CB2F0EEFF52
:106390008401B2F0EEFF8801B0125A46B012644890
:1063A000A242F4111D4298011D821A11824D1A1148
:1063B0000E4D0F43825E2A11826F2C11B24010499C
:1063C00084011F4290013F50CE56824F9C01924261
:1063D00094010C11B24010008C01723CB2F0EEFF3F
:1063E0008C011F42F611CF9303000A249293F411FB
:1063F0000720A243F411B012C846B0126446603CB4
:10640000B2F0EEFF8401B2F0EEFF8601B2F0EEFFD3
:106410008801B01264481D429C011D820C11824DFE
:106420000C110E4D0F43825E2A11826F2C11824394
:10643000F411B24000018401B0127E4AC2931011DF
:1064400013245F421311021232C20343824F3201FE
:10645000B240650038011F423A0132415E421211DA
:106460003F501A12B01210491F42D6110F93042444
:10647000B0126E528243D6111F4290011E429C01FF
:106480000F8EB012144F1C3C1F421E014F4F12C3FF
:106490004F101620B0126E4A133CFB5318003B50AD
:1064A0000D00824B4611D24310114E485E53C24E2E
:1064B00012115E92111102243040145E3040C25E0F
:1064C00021523741384139413A413B413C413D41FC
:1064D0003E413F41B1C0F000000000137C4010007D
:1064E0000D4E0E430F5F0E6E0E9D02280E8D1FD3B4
:1064F0001C83F8233041B012DC640F4E30410D4351
:106500000F9304343D4003003FE31F530E930334C5
:106510005DE33EE31E530D12B012DC643D416DB3EA
:1065200002243EE31E535DB302243FE31F53304178
:10653000B012FE640F4E30410B120A1209120812FB
:1065400007120D9370240F9E6E24342C0C4E0CDF1A
:106550001CF31B240C4E0CEF1CF307202D93072873
:106560000B4E1BF32C430C8B033C0C4D013C1C438A
:106570000D8C0A4C094E0B4FFB4900001B533A533C
:10658000FB230A4F0A5C0E5C013C0A4F0B4D12C301
:106590000B100B24094B084E0C4ABC4800002C532E
:1065A0003953FB230B5B0E5B0A5B1DF33C24EA4E65
:1065B0000000393C0E5D0C4F0C5D0B4C0BDE1BF3E9
:1065C0001B240B4C0BEE1BF306203D90030003280D
:1065D0000B4E1BF3013C0B4D0D8B094E0A4C084B27
:1065E000088C3A533953EA490000074A0758F923FF
:1065F0003BE31B530C5B0E5B0B4D12C30B100E24C5
:106600000A4B084E094C28832983A94800003A53B5
:10661000FA230A8B0B4A0B5B0E5B0C5B1DF3032406
:10662000DC4EFFFFFFFF3741384139413A413B41E2
:1066300030410B120A12091208123D900600092C73
:106640000C4F043CCC4E00001C533D530D93FA23D9
:10665000203C4E4E4B4E0B9303240C4B8C100BDC0A
:106660001FB306243D53CF4E0000094F1953013C80
:10667000094F0C4D12C30C100A49084C8A4B0000FC
:106680002A533853FB230C5C0C591DF30224CC4EC7
:0E6690000000384139413A413B41304100138E
:0C669E000000100050009000D000F00040
:0466AA0001010100E9
:10FFE000344634463446344634461858FA57344674
:10FFF00034463446344634465A583E583446004017
:0400000300004000B9
:00000001FF
