:104000005542200135D0085A8245E8143140003924
:104010003F4004000F9308249242E81420012F83AC
:104020009F4FA86C0011F8233F40E4030F9307242F
:104030009242E81420011F83CF430411F923218306
:10404000B012324D4B4F2D423E40FF003F401A11FF
:10405000B012306CF2431012F243E514B240805AB1
:104060002001A242600182432E01A24280018243CC
:104070001E01B240805A2001C2435600F240A6FF02
:104080005700C24358003E4303433E53FD23B24012
:10409000805A2001B24000596601B24024026001FA
:1040A000B2F0FEFF660192B36601FD271F42760162
:1040B000B2F0FEFF660192B36601FD271E42760153
:1040C0000E8F3E9000026220B2F0FEFF6601824336
:1040D000660182436001F2F0CFFF57005E42570055
:1040E0007EF007007ED080FFC24E5700C2435800CA
:1040F000F2F0FDFF000082439001B2400202800115
:1041000082437001B240020160011E4280013EF014
:10411000CFFF3ED02000824E80011E4260013EF063
:10412000CFFF3ED02000824E6001C2432600C24332
:104130002E00C2431B00C2431F00C2433300C243D0
:104140003700C2432100F240E0FF2200F24030007D
:104150002900F2407B002A00C2431900F240F1FF1F
:104160001A00F240DDFF1D00F240FDFF1E00F24389
:104170003100F2433200C2433500F2433600C243FD
:104180002500C2432D001F427001153C3E900102E4
:104190000928F25356005F4256007F938123F25361
:1041A00057007E3FD25356005F4256004F9378230C
:1041B000D2535700753F1E4270010E8F3E9001286A
:1041C000FA2BE2D31A00F2D21A00F2D080FF1E00BE
:1041D000F2D010001E00F2D080FF1D00F2D01000BF
:1041E0001D0003430343F2F0EFFF1D00F2F0F7FF61
:1041F00019005F43B0127E4A4F43B0127E4A5F43BC
:10420000B0127E4A5F43B0127E4A5F43B0127E4ACC
:104210004F43B0127E4A4F43B0127E4A5F43B01202
:104220007E4AF2D010001D00F2D21900E2D319002C
:10423000F2D010003200F2D020003200F2D0400064
:104240003200F2D010003100F2D020003100F2D064
:1042500040003100B012A4584F93FC231F420211BA
:104260001F53824F521182435411B2F0EFFF62018B
:10427000B2400040620182434A113E40FF001F42AB
:104280000211B012F46AC24F0A128243F811F240CE
:104290005A001C12B240B3FFD4118243D61182439C
:1042A0000E11C2434C11C2434911C2431011F240D6
:1042B00007001111C2431211C2431311B24022125E
:1042C0001411B240000184018243860182438801B7
:1042D00082438A0182438E018243660182438C01BC
:1042E000B24080001E11B2405F282011B240270367
:1042F0002211B240F205241182433E118243401143
:10430000824336118243381182433A1182433C1171
:1043100082432E1182433011824332118243341181
:10432000C243E61482432012B24000041A12B012B3
:10433000A4584F93FC234F4BB012444D32D2C2438A
:10434000C3113D4065000E433F405E11B012306C1A
:10435000F2D0C0FF1B00F24011007800F2402000B4
:104360007900F24024007C00C2437D00F240290025
:104370007B00F24020000500F2F0FEFF7800B01252
:10438000324D4B4FF24017007000F240A2FF710017
:10439000E2437400C2437500C2437300F2D00E00C2
:1043A0001B00F2D00A001A00F2D040000400F2F024
:1043B000FEFF7000F2D064001E00F2F0FDFF1E0050
:1043C000F2F0E6FF2200E2D21D00F2F0FEFF25002F
:1043D000F2F0FEFF2400F2F0FEFF2300F2D02000F6
:1043E0001D00F2F0BFFF1D003F53FE23F2D040003E
:1043F0001D005F43B01264463F53FE23053C5F43FC
:10440000B01264463F53FE234F43B01264463FB0A0
:104410004000F5277F401100B012B8460E4F3EF025
:10442000FFF77F401100B01206497F401200B01222
:10443000B8460E4F3ED000057F401200B01206492C
:104440007F401900B012B8460E4F3EF0FFFD7F408E
:104450001900B01206497F401800B012B8460E4F3E
:104460003EF000FE3ED079017F401800B0120649B0
:104470007F401700B012B8460E4F3ED000207F405C
:104480001700B01206497F401500B012B8460E4F13
:104490003ED01F007F401500B01206497F401C002F
:1044A000B012B8460E4F3ED0FF007F401C00B01245
:1044B0000649B01266487F400600B0126446924337
:1044C0004A11B012924F4F4BB012444DB0124C4DA6
:1044D000824EEC11824FEE11B2400004F011824383
:1044E000F2115F42F4117FF0FEFF6FD3C24FF4115F
:1044F0007F400300B012DA4EB012324D4A4F963C64
:10450000C29301118724B2B0100082011820B2B00A
:10451000100084011420B2B0100086011020B2B047
:10452000100088010C20B2B010008A010820B2B03F
:1045300010008C010420B2B010008E0107241E422E
:1045400080013EF000033E9000022E245F420400F2
:104550003FB0C00005245F4271003FF020002620DC
:104560005F4205003FB0300005245F4279003FF014
:1045700020001E205F4270001FF31C245F42710068
:104580003FF020001A245F4272003FF02000182400
:104590005F4270002FF217245F4270003FF020004E
:1045A00015207E400500133C6E43113C6E430F3CCA
:1045B0006E430D3C7E4005000A3C7E400500073CF2
:1045C0007E400500043C7E400500013C6E43B2B0D5
:1045D0001000A0011924B2B01000A2010524B2B24B
:1045E000A2010F246E43103C1F42A2013FB0000401
:1045F0000B241D4260013DF000033D9000020420A9
:10460000023C4E43013C6E437E90030001286E4302
:10461000C24E06115E4206110E5E1E4E9C6C3ED2CC
:10462000814E000022D132C203430343F2931012A1
:104630006727B012224B4B4F7F9362274F4AB0122D
:10464000444D4F4BB012F056573F32D0F000FD3F73
:1046500030409A6C5E4203003EF02000FB27C24FC0
:104660007F003041E2D21D00F2F0FBFF1D00C24F7F
:1046700077005F4202003FF04000FB275F42760078
:10468000E2D21D0030417F400900B0126446304143
:104690001F4290011F820C11824F0C116F42B01209
:1046A0006446B240104984011E420C110F43825EE1
:1046B0002811826F2A113041E2D21D00F2F0FBFF77
:1046C0001D007FD04000C24F77005F4202003FF0E4
:1046D0004000FB275F4276005F4202004F93FC37A9
:1046E000C24377005F4202003FF04000FB275E427A
:1046F00076004E4E8E105F4202004F93FC37C2434D
:1047000077005F4202003FF04000FB275F427600E7
:10471000E2D21D004F4F0FDE3041E2D21D00F2F019
:10472000FBFF1D00F2407F0077005D4202003DF07C
:104730004000FB275D4276000D4F0F3C5C420200BB
:104740004C93FC37C24377005C4202003CF04000CF
:10475000FB27DD42760000001D534C4D4C8F4C9ED4
:10476000ED2BE2D21D003041C2431011D292111143
:10477000121103207F40050030414F4330410D436B
:104780003E430C4F0C5D5C4C01008C100EEC7C42E7
:104790000E9304340E5E3EE02110013C0E5E7C530D
:1047A000F7231D533D901800EC23CF4E1A008E10B6
:1047B000CF4E190030411F427001013C0F4E1E4286
:1047C00070010F9EFB2330410B120A121A42DE11B8
:1047D0001B42E0111F4260015FF302241A530B6376
:1047E000B012B647824F18120C4F0D437F400500A0
:1047F00012C30D100C107F53FB230E4A0F4B4FEAD0
:104800000FEA8F104E4E8E100E5E0F6F0E5E0F6F02
:104810000E5E0F6F0A4C0B4D0ADE0BDF824AD81179
:10482000824BDA113A413B413041E2D21D00F2F0B5
:10483000FBFF1D00F2407F0077005E4202003EF069
:104840004000FB275E4276005E4202004E93FC373A
:10485000C24377005E4202003EF04000FB27DF4289
:1048600076000000304121830F41B0122A487F4278
:10487000B01264467F42B012644621533041B240C8
:1048800000598E01B2400059660192B38E01FD2796
:1048900092B36601FA271D429E01824D1A121C42F4
:1048A0007601824CFC1182438E0182436601B24044
:1048B000005966017F400700B2F0FEFF660192B327
:1048C0006601FD277F53F82382436601B2400059F9
:1048D0008E01B2400059660192B38E01FD2792B35A
:1048E0006601FA271E429E011F42760182438E0115
:1048F000824366010F8C824FFC113F9203200E8D84
:10490000824E1A123041E2D21D00F2F0FBFF1D0070
:10491000C24F77005F4202003FF04000FB275F423A
:1049200076005F4202004F93FC370F4E8F104F4FBF
:10493000C24F77005F4202003FF04000FB275F421A
:1049400076005F4202004F93FC37C24E77005F4211
:1049500002003FF04000FB275F427600E2D21D00DC
:1049600030410B120A1209120B4F494EA2934A1101
:104970000220B01266480F4B3F501C004B435C3C7A
:104980005D4FEBFF8D105C4FEAFF0DDC1C42021106
:104990000D9C12243D9310245D4FF5FF8D105A4F4E
:1049A000F6FF0DDA0D9C08241C433D9306243D9030
:1049B000FEFF03240C43013C1C430C933A24FF905C
:1049C0000600EFFF36206D4F8D105E4F01000DDEAB
:1049D0001DF305245D4231007DF0EFFF043C5D4294
:1049E00031007DD01000C24D31006D4F8D105E4FF3
:1049F00001000DDE2DF305245D4231007DF0DFFF67
:104A0000043C5D4231007DD02000C24D31006D4F2D
:104A10008D105E4F01000DDE2DF205245D42310048
:104A20007DF0BFFF043C5D4231007DD04000C24DAF
:104A300031005B533F5065004B99A2235D42131137
:104A40005F4212115E4211110F5DB0122E6BC24F08
:104A500013114F4F021232C20343824F3201B24050
:104A6000650038011F423A0132413F502212824F05
:104A70001411C243121139413A413B4130414F9325
:104A800004245F4219006FD3043C5F4219007FF099
:104A9000FDFFC24F1900F2D21900F2F0F7FF190022
:104AA00030415D421C121E42D611E2D21D00F2F0CE
:104AB000FBFF1D00F2403E0077000F4E0E3C5C42B3
:104AC00002003CF04000FB275C4276005C420200A2
:104AD0004C93FC377C4FC24C77004C4F4C8E4C9D16
:104AE000EE2B5F4202003FF04000FB275F42760062
:104AF000E2D21D004F43B01264463FF02000102464
:104B0000B01286469243F8111F4290013F50CE5694
:104B1000824F9C01924290010C11B24010008C0116
:104B200030415F4210124E4F3E501A116D4EC24D31
:104B300010127D930220F243E514FE430000304141
:104B40001F4282018F105FF302241F429201304105
:104B50000B120A120912081292934A115B247F4029
:104B60000600B01264465F4226115E4227110F5EB6
:104B7000021232C20343824F3201924220113801A5
:104B800019423A0132415F422C11021232C20343F0
:104B9000824F32019242221138011A423A013241C7
:104BA0005F422D11021232C20343824F3201924200
:104BB000241138011B423A0132411C4228111D4286
:104BC0002A11084B085A0E480E590F430E5C0F6D00
:104BD000824E4E11824F5011825E2E11826F301123
:104BE000825C3211826D34110E490F43825E3611A0
:104BF000826F38110E4A0F43825E3A11826F3C1168
:104C00000E4B0F43825E3E11826F4011824D461162
:104C1000824CF611384139413A413B4130410B1247
:104C20000B4F7F402200B01254465F43B0125446EF
:104C30006F4BB01254463B413041E2D21D00F2F0BE
:104C4000FBFF1D00F2409BFF77005F4202003FF038
:104C50004000FB275F4276005F4202004F93FC3723
:104C6000C24377005F4202003FF04000FB275F42F3
:104C700076005F4202004F93FC37D2424C1177001E
:104C80005F4202003FF04000FB275F427600E2D225
:104C90001D0030415E4200003F40FE11CF4E00003B
:104CA000CF4301005D4201000E4F2E53CE4D000058
:104CB000CE4301005D4225000E4F2E52CE4D000026
:104CC000CE4301005E422D003F500600CF4E000053
:104CD000CF430100C2430000C2430100C24325008C
:104CE000C2432D00B2F0FBFFE001B2F0FBFFE80190
:104CF000B2F0FBFFF001F2F0FDFF5900B2F0FDFF52
:104D00006001B2F0EFFF6201B2F0EFFF6401B2F0B8
:104D1000EFFF6601B2F0EFFF8201B2F0FDFF80010C
:104D2000E2D31F00B24010498401B2F0FEFF8401BB
:104D300030410E4232C2034303433EF25F4301203F
:104D40004F4330414F93012432D230410B120A12AB
:104D5000091208120712B012324D474F1A42DE11E3
:104D60001B42E011B012B6470D4F1F4260015FF3C6
:104D700005241A530B63B012B6470D4F12C30D1022
:104D800012C30D1012C30D1012C30D1012C30D105B
:104D9000084D09430E4A0F4B4FEA0FEA8F104E4E53
:104DA0008E100E5E0F6F0E5E0F6F0E5E0F6F08DEC1
:104DB00009DF4F47B012444D0E480F493741384183
:104DC00039413A413B4130410B120A12B0124C4D6D
:104DD0001C425A111D425C110A4C0B4D1A525611BD
:104DE0001B6258110F9D092802200E9C06280B9D5E
:104DF000102809200A9C0D28063C0B9D04280D9BB9
:104E000027280A9C252C0F9B04280B9F21280E9AEB
:104E10001F2C0C4A0D4B0C8E0D7F0D9303203C90E4
:104E2000010418280A4E0B4F3A5000040B63824AC3
:104E30005A11824B5C110A4C0B4D3A5000FC3B63FB
:104E4000824A5611824B58113C4000040D430A3CE3
:104E50000C430D43824A5A11824B5C118243561116
:104E6000824358110C5C0C5C0C5C0C5C0C5C0E5EA0
:104E70000E5E0E5E0E5E0E5E1F427001013C0F4D17
:104E80001D4270010F9DFB230B4F0B8E0B9C0928BD
:104E90001F427001013C0F4E1E4270010F9EFB230A
:104EA0000C3C0C8B3C9003000C2C1F427001013C0D
:104EB0000F4E1E4270010F9EFB232F53824F720133
:104EC000033C0C5F824C7201B2F0FEFF6201B2D073
:104ED000100062013A413B4130410B124B4FB0127E
:104EE000324D4E4BFE931A1106201E43C29BE51411
:104EF00003240E43013C1E430E930E20F293101226
:104F00000320C24B1012043C5E42E514CE4B1A1132
:104F1000C24BE5144B43023C7B400500B012444DAC
:104F20004F4B3B4130415F931F2406286F9324244D
:104F30007F9005002D20283C1F4262018F105FF3F7
:104F400003241F4272013041B2F0EFFF62018293ED
:104F5000561107208293581104206F43B012DA4E85
:104F60003041B012C84D30411F4264018F105FF3D1
:104F70000F241F42740130411F4266018F105FF3FE
:104F800007241F42760130419253DE118263E01103
:104F90003041B0124C4D3D40E2118D4E00008D4F1E
:104FA0000200BD40800004008D430600FDD00300D8
:104FB00008007F400300B012DA4E30410B120A1293
:104FC00009120A4F92934A1199241E4208111F4256
:104FD0000A111E524E111F6250110C4A0D430E5CF5
:104FE0000F6D7D40070012C30F100E107D53FB2381
:104FF0001C4218120D430E5C0F6D094F1A42DE1150
:105000001B42E011033C5D530A4E0B4F0E4A0F4BFF
:105010001E530F634C4D0C99F62B824ADE11824BC6
:10502000E01192434A11D242FE110000D242001216
:105030000100D24202122500D24204122D00B2F029
:10504000F7FFE001A2D2E001B2F0F7FFE801A2D23F
:10505000E801B2F0F7FFF001A2D2F001F2F0FEFF9A
:105060005900E2D35900B2F0FEFF6001A2D3600103
:10507000B2F0FEFF6201B2D010006201B2F0FEFF9A
:105080006401B2D010006401B2F0FEFF6601B2D03C
:1050900010006601B2F0FEFF8001A2D38001B2F0E1
:1050A000FEFF8201B2D010008201B012B6470C4F51
:1050B0000D437F40050012C30D100C107F53FB23DE
:1050C0000E4A0F4B4FEA0FEA8F104E4E8E100E5EB7
:1050D0000F6F0E5E0F6F0E5E0F6F0EDC0FDD1F92F7
:1050E000DA110628829FDA1107281E92D811042CA3
:1050F0009253DE118263E011B012924F39413A416E
:105100003B4130410B120A12091208120712061213
:105110000B4D494CCD930D0003245D4D1000013C17
:105120004D4379903E00C52CCB4F0B00CB4E060073
:105130000F4E8F104F4FCB4F0700CB4E1200CB4F6F
:1051400011006D935D2892934A11B520F2F0FDFF96
:10515000EA11B012324D474F564B1000B2400300D7
:105160004A11D24306120A4B4843353C5F420A12A9
:10517000FA4041000100FA4088FF0200CA430400DF
:10518000CA4305001E420211CA4E08008E10CA4EC4
:1051900009005E4A07008E105D4A06000EDD3E9350
:1051A0000524DA430E00FA4061000100FA405A007B
:1051B0000000CA4F0300CA490C00CA435D00CA433D
:1051C0005900CA435A000F4AB0127E47D2530A12FE
:1051D00058533A5065004896C9233D400F000E4B86
:1051E0003E500D003F40C411B012366BB012944CCB
:1051F000B01268477F400300B01264464F474E3CF0
:1052000092934A115820F2F0FDFFEA11B012324D8C
:105210004A4FB24003004A11C24306125F420A12CB
:10522000FB4041000100FB4088FF0200CB4304002B
:10523000CB4305001E420211CB4E08008E10CB4E10
:1052400009005E4B07008E105D4B06000EDD3E939D
:105250000524DB430E00FB4061000100FB405A00C7
:105260000000CB4F0300CB490C00CB435D00CB4388
:105270005900CB435A003D400F000E4B3E500D00ED
:105280003F40C411B012366B0F4BB0127E47B012C4
:10529000944CB012C847B01268474F4AB012444D00
:1052A0008293F81108203E40C4110F4BB012C25433
:1052B000043C6F43023C7F40050036413741384192
:1052C00039413A413B413041C24300111D42DC119A
:1052D0000D9304245F4216121FF30224D2430011DF
:1052E000C293001111205F4D07008F105E4D060024
:1052F0005C4D0C000EDF5F4D0B00B01204514F935C
:1053000003245F43B012DA4E30410B12C2930011F6
:105310000D201B42DC110B9F09208243DC11B012CF
:10532000C8523B905E110220C243C3113B41304141
:105330002183B29003004A110920814F0000B0126E
:105340008646D2530A122F41B0120A5321533041DC
:105350000B120A1209120812071206121842D4116F
:10536000824F0C114F43B01264462FF3FB27764057
:10537000160007430A4349434B431D3C7F4013003B
:10538000B012B8464D4F3D90810003383D50D3FEDA
:10539000023C3D50D3FF1F42D4113F5003000F9DEC
:1053A00006345B53075D089D0434084D023C595395
:1053B0000A5D7653032492B38401E0276B921B2885
:1053C00092B3840118204E4B0F47B012FC6A088F2D
:1053D000389006000A341F4290013F50CE56824F4B
:1053E0009C01B24010008C01653C1F42F8111F93D4
:1053F00018242F92282492B384015C201B42D411DC
:105400000B5B0B5B4E490F4AB012FC6A3E40050035
:105410000F5BB012FC6A824FD4111F42F8111F9328
:105420001020A243F8111E4290011E820C110F435E
:10543000825E2811826F2A11B0129046B012A24AE1
:10544000393C2F9237201D4290011D820C11824D54
:105450000C110E4D0F43825E2811826F2A11824378
:10546000F811B24000018401B012504BC2931011E8
:1054700013245F421311021232C20343824F3201DE
:10548000B240650038011F423A0132415E421211BA
:105490003F502212B01262491F42D6110F930424CA
:1054A000B01230538243D6111F4290011F829401E3
:1054B000B012BC4F36413741384139413A413B4146
:1054C00030410B120A1209120A4F094EB012324D26
:1054D0004B4F8249FA11824AD611C2434C11C24342
:1054E000E614C2432611C2432711C2432C11C24302
:1054F0002D118243281182432A119243F811B240A0
:1055000010498401924290010C117F400300B012B7
:10551000644692B3840104201F429001B01250539C
:105520004F4BB012444D4F4339413A413B4130411A
:105530000B120A1209120812071206123740E21162
:105540005642EA1166B312241A42E2111B42E411D8
:105550001C42E6111D42E811084E094F088A097BDA
:10556000099D04280D991928089C172C3740EC1127
:105570005642F41166B3AE241A42EC111B42EE11EE
:105580001C42F0111D42F2110E8A0F7B0F9DA228C2
:1055900002200E9C9F281F43013C0F4356F3042416
:1055A000F7F0FDFF0800083C084A094B085C096D4C
:1055B00087480000874902005F93432492934A1171
:1055C0008920B012324D4A4FD29211111211032488
:1055D0008293F81109248243F811C2431211C24385
:1055E0001311B012924F293CC243E614C243261154
:1055F000C2432711C2432C11C2432D1182432811EB
:1056000082432A11A242F811B24010498401A243F8
:105610004A11B012944CB012C847B0126847924277
:1056200090010C117F400300B012644692B38401D4
:1056300004201F429001B01250534F4AB012444D03
:10564000493C1F4204111F53824F0411C293C311DE
:105650004120D2436B11D2436E11C24F7B118F1088
:10566000C24F7A11B0124C4DC24E7F110D4F8E10A9
:105670008D104EED0EEDC24E7E11C24F7D118F107A
:10568000C24F7C11F2436411F2436511F243701171
:10569000F2436F11F240060069118293DC111A2067
:1056A000B2405E11DC11F24006006A11C293001193
:1056B0001C24C24300117C4006003D405E113E4365
:1056C0007F400600B01204514F930F24D2430011C3
:1056D0008243DC117F400300B012DA4E364137417D
:1056E000384139413A413B413041D243C311F23F45
:1056F0000B120A12091208120712061221835F9375
:10570000272406286F9337247F900300C320603C32
:105710005D4216124D93BE245A42C3113E40DC1125
:105720004C435F434FBD0A24284E8E4300004DCFAB
:105730004C93042038905E1101204A434F5F5C5324
:105740002E537C92EF23C24D1612C24AC311A23CC3
:105750005A4200114F4A0F5F3F50DC11284F8F43D0
:105760000000B012C8524A93952038905E119220E2
:10577000C243C3118F3CC293421127201A420C121C
:105780001B420E12B012324D1842561119425811D6
:1057900018525A1119625C11B012444D824A0C120F
:1057A000824B0E12C2434211B012324D82485A113E
:1057B00082495C11824A5611824B5811814F000078
:1057C000B012C84D2F41B012444DB0124C4D483C60
:1057D000B0124C4D084E094FB2F0EFFF6201E2B338
:1057E000EA1115240A4E0B4F1A82E2111B72E411C2
:1057F0001642E6111742E811068A077B0A460B4754
:1058000036930A203B90FF7F07204D43063C4D43D3
:105810003A433B40FF7F013C5D43E2B3F411162461
:105820000E480F491E82EC111F72EE111642F01144
:105830001742F211068E077F0E460F470F9B033863
:105840000520069A032C0A4E0B4F023C4D9322244E
:105850000B9304381B9307341A93052C0E480F49F9
:10586000B0123055173C824A0C12824B0E12D243B2
:105870004211B012324D82485A1182495C11824A5B
:105880005611824B5811814F0000B012C84D2F4164
:10589000B012444D215336413741384139413A41E4
:1058A0003B413041F29310120824B012224B7F93F7
:1058B0000624B012F0565F4330414F4330414F430E
:1058C00030410F120E120D120C124F43B012264F20
:1058D0003C413D413E413F41B1C0F000000000135A
:1058E0000F120E120D120C121F422E014F4F12C337
:1058F0004F10B012264F3C413D413E413F41B1C0A7
:10590000F000000000130F120E120D120C12B01254
:10591000404B3C413D413E413F41B1C0F0000000A1
:1059200000130F120E120D120C120B120A12091292
:10593000081207123150FAFF1F4290011E429401D3
:105940003F50DAFF0F8E814F040091510400040094
:105950001F4290011E4296013F50C7FF0F8E814F9C
:1059600002009151020002001F421E01824F0812E4
:10597000B240000184012F9302243040D0661F42C0
:10598000F8113F90030004243F92022430405C5CF5
:105990005E421C002EF3022430405C5CF1400B00A0
:1059A00000000F41B0121E4C1F4294011F821412BE
:1059B000824F1412924294010C11B2900600F81119
:1059C00002205F421C00B2F0EEFF8801B2400001ED
:1059D0008401B19009000400D92C10510400034344
:1059E0000343034303430343034303430343034387
:1059F000034303430343034392521A129601824323
:105A0000860192B38601FD27B2F0FEFF8601B01237
:105A100090461B4214111A42D6117E4005000F4BCE
:105A2000B0121A475F4B02005E4B0100B2900300B8
:105A3000F81188204F4F8F104FDE7FF007006F93D3
:105A40003F20DB9A030003003B201E42D611DE43B9
:105A50005D001F42FA115D4F03007D53CF4D0300DF
:105A60000B24A243F811C2434C113E506500824EF4
:105A7000D611B012A24A663CCF930A000B245F42B3
:105A80004C117F9040000624A243F8115F53C24F8F
:105A90004C11563C4F43B01264463FF020000220A8
:105AA000B01286464F43B01264463FF02000FA27FA
:105AB000B0128646B2F0FEFF84019243F811313CE9
:105AC0005F424C115F53C24F4C117F904000362013
:105AD0001E42FA115F4E03007F53CE4F03000C2489
:105AE0009243F811C2434C11B2506500D6111F42C7
:105AF0009401B0125053263C4F43B01264463FF01D
:105B000020000220B01286464F43B01264463FF098
:105B10002000FA27B0128646B2F0FEFF8401A242AE
:105B2000F8111F4290013F50CE56824F9C01924285
:105B300094010C11B24010008C01043CA243F811F6
:105B4000B0123A4CB292F81102243040FE5E5F422D
:105B50004C117F90400010204F43B01264463FF03C
:105B600020000220B01286464F43B01264463FF038
:105B70002000FA273040785DB2400700F8115F53EB
:105B8000C24F4C11B0123A4C3040FE5E1B42141111
:105B90001A42D6117E4005000F4BB0121A475F4BD8
:105BA00002005E4B0100B2900300F8114E204F4FEF
:105BB0008F104FDE7FF007006F931920DB9A0300F0
:105BC000030015201F42D611DF435D001D42FA116C
:105BD0005E4D03007E53CD4E03001E249243F81108
:105BE000C2434C113F506500824FD6112A3CD2531C
:105BF0004C11B0123A4CF29040004C111E201F4242
:105C0000FA11CF93030008249243F811C2434C11B8
:105C1000B2506500D611153CB0128646A242F8116A
:105C20001F4290013F50CE56824F9C0192429401F8
:105C30000C11B24010008C01083C9243F811C24391
:105C40004C111F429401B0125053B292F811022429
:105C50003040FE5EB01286463040E25E3F90060065
:105C6000022430400C5F5E421C002EF302243040C0
:105C70009E65F140160000000F41B0121E4C1F42FD
:105C800094011F821412824F1412924294010C113B
:105C9000B2F0EEFF8801B24000018401B19009002A
:105CA0000400BE2C10510400034303430343034389
:105CB00003430343034303430343034303430343B4
:105CC00003430343034303430343034303430343A4
:105CD0000343034303430343034303430343034394
:105CE000034392521A1296018243860192B38601AF
:105CF000FD27B2F0FEFF8601B01290461F42FA1156
:105D00005E4F03004E9306248293D6110324CF9353
:105D100002005120C29310114924D2921111121184
:105D200045241F424411CF930A001524FF90070019
:105D30000B00112CB2400700F8111F42D6110F932F
:105D400004244E930524824F0E1192421411D61151
:105D5000C2434C11323CCF93000014244F43B01285
:105D600064463FF020000220B01286464F43B01236
:105D700064463FF02000FA27B0128646B2F0FEFFDC
:105D80008401AF3C4F43B01264463FF02000022034
:105D9000B01286464F43B01264463FF02000FA2707
:105DA000B0128646B2F0FEFF8401553C4E930824A3
:105DB0008293D6110524A243F811B012A24A9F3C47
:105DC0004F43D292111112111820B01264463FF0C5
:105DD00020000220B01286464F43B01264463FF0C6
:105DE0002000FA27B0128646B24000018401D25347
:105DF0002C119242141222114B3CB01264463FF017
:105E000020000220B01286464F43B01264463FF095
:105E10002000FA27B0128646B2F0FEFF84015E3CF5
:105E20001E42FA115D4E03004D9306248293D61153
:105E30000324CE9302001720C29310110F24D29294
:105E4000111112110B241F424411CF930000462060
:105E5000B24010498401A242F8110A3C4D930D242E
:105E60008293D6110A24B240104984019243F8115A
:105E70001F429401B0125053423CD29211111211A0
:105E80002D20B24000018401D2532C11824F2211E7
:105E9000B012504BC293101113245F42131102121F
:105EA00032C20343824F3201B240650038011F42C3
:105EB0003A0132415E4212113F502212B012624941
:105EC0001F42D6110F930424B01230538243D611CF
:105ED0001F4290011E42940130407A6AB24010493C
:105EE0008401A242F8111F4290013F50CE56824FCA
:105EF0009C01924294010C11B24010008C01D253CB
:105F00002C119242141222113040BC6A3F900500BD
:105F1000022430404C615F421C002FF302243040C9
:105F2000AA66F140210000000F41B0121E4C1F4232
:105F300094011F821E12824F1E121E429401824E35
:105F40000C11B2F0EEFF8801A293F81102205F421B
:105F50001C00B24000018401B19009000400B72C7C
:105F60001051040003430343034303430343034328
:105F700003430343034303430343034303431F42D6
:105F800094011F521A12824F96018243860192B3E6
:105F90008601FD27B2F0FEFF86011F4290010F8EA1
:105FA000824F0C11924290011212C29348110724A1
:105FB0007F400A00B0126446B240104984011F427B
:105FC0001A120E4F0E5E12C30F100F5E1F521212E6
:105FD000824F9601B240100086011E420C110F4301
:105FE000825E2811826F2A111A421411B2400600F3
:105FF000F8115D4249115E421C125E534F4D4E8DA9
:106000000F5AB0121A475F421C124E4F5E53C24ED7
:1060100049110F5ACF93000055341B421411C293FB
:10602000481108205F4B11008F105E4B12000FDEED
:106030003F934A2057421211584213114943263CBC
:106040004F493E4007000F58B0122E6B021232C269
:106050000343824F3201B240650038011E423A01CB
:1060600032413E502212DA9E030003000E205C4AA9
:1060700009008C105F4A08000CDF5D4E09008D108E
:106080005F4E08000DDF0C9D582459534997D823C3
:106090003040946A5F42131149493E4007000F594E
:1060A000B0122E6B021232C20343824F3201B24051
:1060B000650038011F423A0132413F502212824F9F
:1060C00014113B3CB0128646B0126648363C1E4264
:1060D0001411A242F8115F4249115D421C125D5336
:1060E0004D8F0E5F0F4E0F3C5C4202004C93FC370D
:1060F000C24377005C4202003CF04000FB27DF42D5
:10610000760000001F534C4F4C8E4C9DED2BE2D27D
:106110001D005F421C125F53C24F4911B24010492B
:1061200084011F4290013F50CE56824F9C01924203
:1061300094010C11B24010008C01D25326111F4261
:1061400020110F5F0F5F1F521E12843C2F938B2074
:106150005F421C002FF3022430405A66F1402C00AD
:1061600000000F41B0121E4C1F4294011F821611F5
:10617000824F16111C429401824C0C11B2F0EEFFBA
:106180008801B24000018401B190090004004F2C45
:1061900010510400034303430343034303430343F6
:1061A00003430343034303430343034303431F42A4
:1061B0001A121E4294010E5F824E9601824386019E
:1061C00092B38601FD27B2F0FEFF8601034303432D
:1061D000034303430343034303430343034303438F
:1061E0000343034303430343034303431D4290011B
:1061F0000D8C824D0C111C429001824C1212B24047
:10620000104984010E4F0E5E12C30F100F5E0F5C1B
:10621000824F9601B240100086010E4D0F43825E00
:106220002811826F2A11B2400300F8110B3CB01202
:106230008646B240104984019243F8111F429401EE
:10624000B0125053D25327111F4220110F5F0F5F1E
:106250001F5216110F5F3E400A00B012DA6A824FD9
:1062600020113040BC6A3F9007008C205F421C0028
:106270002FF3022430401066F140370000000F4138
:10628000B0121E4C1C429401824C0C11B2F0EEFF75
:106290008801B24000018401B190090004004E2C35
:1062A00010510400034303430343034303430343E5
:1062B00003430343034303430343034303431F4293
:1062C0001A121E4294010E5F824E9601824386018D
:1062D00092B38601FD27B2F0FEFF8601034303431C
:1062E000034303430343034303430343034303437E
:1062F0000343034303430343034303431D4290010A
:106300000D8C824D0C111C429001824C1212B24035
:10631000104984010E4F0E5E12C30F100F5E0F5C0A
:10632000824F9601B240100086010E4D0F43825EEF
:106330002811826F2A11B242F811203CB012864611
:106340001F42FA11CF9303000B241F420E110F932B
:106350000724824FD61182430E119243F811053C57
:10636000B24010498401A242F8111F4290013F50EF
:10637000CE56824F9C01B24010008C01D25327119F
:106380003040BC6A2F9204241F93022430408E6553
:106390005E421C002EF3022030408E65F140420028
:1063A00000000F41B0121E4C1F4294011F820C11BD
:1063B000824F0C11924294011E12B2F0EEFF8C013A
:1063C000B190010404001328B0126648A242F811EB
:1063D0001F4290013F50CE56824F9C011E420C112D
:1063E0000F43825E2811826F2A113040C866B24086
:1063F000108984011E4294013E5020035F421C120A
:106400007D4007000F5F7D53FD230F5E824F980193
:10641000924294011811B240100088011A421411DE
:10642000B2400500F811033C92B388012A205F4274
:1064300020003FF2F9270F4AB0122A48E29A1C12B4
:106440001724B2F0EEFF8801B0126648A242F8119C
:10645000B240104984011F4290013F50CE56824FF6
:106460009C01924294010C11B24010008C01863CB8
:10647000B0127E48D24349113B43753C92B3880128
:106480000624B0126648B24000018401773C5E42A7
:1064900020003EF2F3274F4F0F5A5E4202004E9308
:1064A000FC37C24377005E4202003EF04000FB270B
:1064B000DF42760000005E4249117E9019000F2CE9
:1064C0004F4E0F5A6F4F8F100BEF7F420B930434D8
:1064D0000B5B3BE02110013C0B5B7F53F7235E53CA
:1064E000C24E49117E901C003E201E421411CE93D4
:1064F0000E001F205D4E11008D105F4E12000DDF4B
:106500001D92021116243D90FEFF10205D4E1300D7
:106510008D105F4E14000DDF1D8220125C4E1500A1
:106520008C105F4E16000CDF0C9D0328C2434811EF
:10653000023CD24348115D4E19008D105F4E1A0087
:106540000DDF0B9D1024C24348117F407700B0122D
:1065500054465F43B01254460F4B8F10B01254464E
:106560004F4BB01254465F4249115E421C123E50DE
:10657000FDFF4D4F0D9E8B3BE2D21D001E420C11C4
:106580000F43825E2811826F2A113040BC6A3F900F
:10659000060005243F90030002243F9236205E420D
:1065A0001C002EF33224F1404D0000000F41B012C8
:1065B0001E4C1F4294011F821212824F12129242ED
:1065C000940114120E4F3E5024FA3E9065000728A5
:1065D000B0126648B240104984013040BC6AB2F043
:1065E000EEFF86011E4294013E50A005824E9801A6
:1065F000924294011811B24010008801B2401089F3
:106600008401824F2411304050693F9007002320BD
:106610005F421C002FF34924F140580000000F4155
:10662000B0121E4CB240108984011E4294013E50AB
:1066300020035F421C127D4007000F5F7D53FD2346
:106640000F5E824F9801924294011811B2401000DF
:106650008801304050692F9328205F421C002FF39F
:106660002424F140630000000F41B0121E4C9242FE
:1066700094011611B240108984011E4294013E50CB
:1066800020035F421C127D4007000F5F7D53FD23F6
:106690000F5E824F9801924294011811B24010008F
:1066A0008801B0127E4830405069B0128646B01260
:1066B0006648A242F811B240104984011F4290017D
:1066C0003F50CE56824F9C011F4294013040BE691C
:1066D0003F9006000220304056693F900A00022099
:1066E0003040CA692F9202243040826A9242960159
:1066F0000C11B2F0EEFF8601B24000018401E142CC
:1067000000000F41B0121E4CB19009000200E02CB5
:106710001051020003430343034303430343034372
:10672000034303430343034303430343034392529B
:106730001A1296018243860192B38601FD27B2F0B8
:10674000FEFF8601B01290461F42F8113F900600EE
:106750001F201F42FA11CF9303000B248293D611FE
:106760000824A243F811B012A24AC2434C1130408F
:106770004C694F43B01264463FF020000220B01233
:1067800086464F43B01264463FF02000FA27843C0F
:106790003F9003002E20A243F8115F424C115F533B
:1067A000C24F4C117F90400066201E42FA115F4E8E
:1067B00003007F53CE4F03000624B2506500D6116C
:1067C000B012A24A343C4F43B01264463FF020005E
:1067D0000220B01286464F43B01264463FF02000BC
:1067E000FA27B0128646B2F0FEFF84019243F811F8
:1067F000363C3F924320B2400700F8115F424C11F3
:106800005F53C24F4C117F90400035201F42FA1158
:10681000CF9303000F241F420E110F930B24A243AA
:10682000F811824FD611B012A24A82430E11C24310
:106830004C11213C4F43B01264463FF0200002202F
:10684000B01286464F43B01264463FF02000FA274C
:10685000B0128646B2F0FEFF8401A242F8111F4238
:1068600090013F50CE56824F9C01924296010C11EE
:10687000B24010008C01B0123A4C683C4F43B01249
:1068800064463FF020000220B01286464F43B0120B
:1068900064463FF02000FA27B0128646B2F0FEFFB1
:1068A0008401F2900300E6140C28B2400001840138
:1068B0008243F8111F4290013F508000824F9C019B
:1068C000423CA242F8111F4290013F50CE56F63F83
:1068D0001F42FA115D4F03004D9327241E42D6112B
:1068E0000E9323245C424C115C53C24C4C117C909F
:1068F000400014207D53CF4D03000A243E50650014
:10690000824ED611C2434C11B24010498401063C5C
:10691000B240104984019243F8110C3C9243F811A3
:106920001F429601B0125053113CB24010498401ED
:10693000A242F8111F4290013F50CE56824F9C0157
:10694000924296010C11B24010008C01D2532C11CE
:10695000D2532D11B33CF140060000000F41B0129C
:106960001E4CB24000018401B2F0EEFF8801B0126B
:106970008646B01266481F42FA11CF9303000624E0
:106980008293D61103249243F811023CA242F811DB
:106990001D4298011D821811824D18110E4D0F4392
:1069A000825E2811826F2A11B240104984011F4271
:1069B00090013F50CE56824F9C011F429801824F5A
:1069C0000C11B24010008C01793CF1400A0000002B
:1069D0000F41B0121E4CB2F0EEFF8401B2F0EEFF98
:1069E0008601B2F0EEFF8801B2F0EEFF8C01B0122A
:1069F00066481F42FA11CF9303000A249293F811BC
:106A00000720A243F811B0129046B012A24A563C99
:106A10001D429C011D820C11824D0C110E4D0F4325
:106A2000825E2811826F2A118243F811B240000160
:106A30008401B012504BC293101113245F42131102
:106A4000021232C20343824F3201B2406500380164
:106A50001F423A0132415E4212113F502212B012DF
:106A600062491F42D6110F930424B012305382435F
:106A7000D6111F4290011E429C010F8EB012BC4FD6
:106A80001D3C1F421E014F4F12C34F101720B01262
:106A9000404B143CC243E614FB5318003B500D001E
:106AA000824B4411D24310115953C24912115992C9
:106AB000111102243040946030403A613150060098
:106AC0003741384139413A413B413C413D413E41EA
:106AD0003F41B1C0F000000000137C4010000D4E9B
:106AE0000E430F5F0E6E0E9D02280E8D1FD31C836A
:106AF000F8233041B012DA6A0F4E30410D430F9344
:106B000004343D4003003FE31F530E9303345DE321
:106B10003EE31E530D12B012DA6A3D416DB30224FA
:106B20003EE31E535DB302243FE31F533041B012D6
:106B3000FC6A0F4E30410B120A120912081207129A
:106B40000D9370240F9E6E24342C0C4E0CDF1CF31E
:106B50001B240C4E0CEF1CF307202D9307280B4E23
:106B60001BF32C430C8B033C0C4D013C1C430D8C44
:106B70000A4C094E0B4FFB4900001B533A53FB23B1
:106B80000A4F0A5C0E5C013C0A4F0B4D12C30B10FE
:106B90000B24094B084E0C4ABC4800002C533953B7
:106BA000FB230B5B0E5B0A5B1DF33C24EA4E0000EB
:106BB000393C0E5D0C4F0C5D0B4C0BDE1BF31B24A4
:106BC0000B4C0BEE1BF306203D90030003280B4EED
:106BD0001BF3013C0B4D0D8B094E0A4C084B088CE6
:106BE0003A533953EA490000074A0758F9233BE36F
:106BF0001B530C5B0E5B0B4D12C30B100E240A4B88
:106C0000084E094C28832983A94800003A53FA23E7
:106C10000A8B0B4A0B5B0E5B0C5B1DF30324DC4EF3
:106C2000FFFFFFFF3741384139413A413B41304195
:106C30000B120A12091208123D900600092C0C4F83
:106C4000043CCC4E00001C533D530D93FA23203CD2
:106C50004E4E4B4E0B9303240C4B8C100BDC1FB38E
:106C600006243D53CF4E0000094F1953013C094FF4
:106C70000C4D12C30C100A49084C8A4B00002A53D1
:106C80003853FB230C5C0C591DF30224CC4E00003E
:0C6C9000384139413A413B41304100138A
:0C6C9C000000100050009000D000F0003C
:046CA80001010100E5
:10FFE00050465046504650465046E058C25850463B
:10FFF00050465046504650462259065950460040F9
:0400000300004000B9
:00000001FF
