:104000005542200135D0085A82455A1331400039B3
:104010003F4004000F93082492425A1320012F833B
:104020009F4FBE610011F8233F4056020F930724B3
:1040300092425A1320011F83CF430411F923218395
:10404000B012D04A4B4F2D423E40FF003F401C1162
:10405000B0124661F243E011F2435813B240805A65
:104060002001A242600182432E01A24280018243CC
:104070001E01B240805A2001C2435600F240A6FF02
:104080005700C24358003E4303433E53FD23B24012
:1040900000516601B24024026001B2F0FEFF6601E9
:1040A00092B36601FD271F427601B2F0FEFF660162
:1040B00092B36601FD271E4276010E8F3E900004EA
:1040C00015243E9001040928F25356005F42560021
:1040D0007F93E323F2535700E03FD25356005F42F1
:1040E00056004F93DA23D2535700D73F82436601DD
:1040F00082436001F2F0CFFF57005E4257007EF02E
:1041000007007ED080FFC24E5700C2435800F2F035
:10411000FDFF000082439001B24002028001824311
:104120007001B240020160011E4280013EF0CFFFEB
:104130003ED02000824E80011E4260013EF0CFFF43
:104140003ED02000824E6001C2432600C2432E00B2
:10415000C2431B00C2431F00C2433300C2433700A7
:10416000C2432100F240E0FF2200F240300029006B
:10417000F2407B002A00C2431900F240F1FF1A000E
:10418000F240DDFF1D00F240FDFF1E00F243310052
:10419000F2433200C2433500F2433600C2432500E9
:1041A000C2432D001F4270011E4270010E8F3E90CF
:1041B0000128FA2BE2D31A00F2D21A00F2D080FFC3
:1041C0001E00F2D010001E00F2D080FF1D00F2D0C1
:1041D00010001D0003430343F2F0EFFF1D00F2F057
:1041E000F7FF19005F43B012B8484F43B012B84808
:1041F0005F43B012B8485F43B012B8485F43B01293
:10420000B8484F43B012B8484F43B012B8485F4364
:10421000B012B848F2D010001D00F2D21900E2D35B
:104220001900F2D010003200F2D020003200F2D09B
:1042300040003200F2D010003100F2D020003100F6
:10424000F2D040003100B01240554F93FC231F4282
:1042500002111F53824F5E1182436011B2F0EFFFD3
:104260006201B24000406201824356113E40FF00AD
:104270001F420211B012CA5FC24FDA118243CC1141
:10428000F2405A00E711B240B3FFAE118243B011C1
:1042900082430E11C2435811C2435411C24310113C
:1042A000F24007001111C2431211C2431311B24070
:1042B000EC111411B2400001840182438601824353
:1042C000880182438A01B24000018E01B2400001A0
:1042D000660182438C01B24080002011B2405F2809
:1042E0002211B240A0022411B240190226118243C9
:1042F0004011824342118243381182433A11824372
:104300003C1182433E118243301182433211824379
:10431000341182433611B01240554F93FC234F4B5A
:10432000B012E24A32D2C2439E11B012D04A4B4F71
:10433000F24017007000F240A2FF7100E2437400E7
:10434000C2437500C2437300F2D00E001B00F2D0CE
:104350000A001A00F2D040000400F2F0FEFF7000E4
:10436000F2D064001E00F2F0FDFF1E00F2F0E6FF46
:104370002200E2D21D00F2F0FEFF2500F2F0FEFF67
:104380002400F2F0FEFF2300F2D020001D00F2F026
:10439000BFFF1D003F53FE23F2D040001D005F43CE
:1043A000B012D4454F43B012D4453FB04000FA2775
:1043B0007F401100B012AE460E4F3EF0FFF77F4037
:1043C0001100B01260487F401200B012AE460E4F8E
:1043D0003ED000057F401200B01260487F401900B7
:1043E000B012AE460E4F3EF0FFFD7F401900B012F6
:1043F00060487F401700B012AE460E4F3ED00020FE
:104400007F401700B01260487F401500B012AE46E2
:104410000E4F2EF37F401500B01260487F401C0005
:10442000B012AE460E4F3ED0FF007F401C00B012CF
:104430006048B01284467F400600B012D4459243D3
:104440005611B012404D4F4BB012E24AB012EA4A38
:10445000824EC211824FC411B2400004C611824381
:10446000C8115F42CA117FF0FEFF6FD3C24FCA115D
:104470007F400300B012884CB012D04A4A4F963C9D
:10448000C29301118724B2B0100082011820B2B08B
:10449000100084011420B2B0100086011020B2B0C8
:1044A000100088010C20B2B010008A010820B2B0C0
:1044B00010008C010420B2B010008E0107241E42AF
:1044C00080013EF000033E9000022E245F42040073
:1044D0003FB0C00005245F4271003FF0200026205D
:1044E0005F4205003FB0300005245F4279003FF095
:1044F00020001E205F4270001FF31C245F427100E9
:104500003FF020001A245F4272003FF02000182480
:104510005F4270002FF217245F4270003FF02000CE
:1045200015207E400500133C6E43113C6E430F3C4A
:104530006E430D3C7E4005000A3C7E400500073C72
:104540007E400500043C7E400500013C6E43B2B055
:104550001000A0011924B2B01000A2010524B2B2CB
:10456000A2010F246E43103C1F42A2013FB0000481
:104570000B241D4260013DF000033D900002042029
:10458000023C4E43013C6E437E90050001286E4282
:10459000C24E06115E4206110E5E1E4EB2613ED242
:1045A000814E000022D132C203430343F293E01153
:1045B0006727B012DC484B4F7F9362274F4AB012F7
:1045C000E24A4F4BB0128C53573F32D0F000FD3FC0
:1045D0003040B061F2F0FBFF1D00C24F77005F4238
:1045E00002003FF04000FB275F427600E2D21D0050
:1045F00030417F400900B012D44530415D42E7119F
:104600001E42B011F2F0FBFF1D00F2403E007700A9
:104610000F4E0E3C5C4202003CF04000FB275C4227
:1046200076005C4202004C93FC377C4FC24C770012
:104630004C4F4C8E4C9DEE2B5F4202003FF04000F1
:10464000FB275F427600E2D21D003041F2F0FBFF13
:104650001D00F2407F0077005E4202003EF0400005
:10466000FB275E4276005E4202004E93FC37C24357
:1046700077005E4202003EF04000FB27DF427600FA
:104680000000304121830F41B0124C467F42B012EE
:10469000D4457F42B012D445215330416F42B0120D
:1046A000D445B0128446B2F0FEFF84013041F2F0EE
:1046B000FBFF1D007FD04000C24F77005F42020029
:1046C0003FF04000FB275F4276005F4202004F93BD
:1046D000FC37C24377005F4202003FF04000FB27F7
:1046E0005E4276004E4E8E105F4202004F93FC37C2
:1046F000C24377005F4202003FF04000FB275F4269
:104700007600E2D21D004F4F0FDE3041F2F0FBFF8A
:104710001D00F2407F0077005D4202003DF0400046
:10472000FB275D4276000D4F0F3C5C4202004C932C
:10473000FC37C24377005C4202003CF04000FB279C
:10474000DD42760000001D534C4D4C8F4C9EED2BEE
:10475000E2D21D003041C2431011D2921111121148
:1047600003207F40050030414F4330410B120A12B5
:1047700009125D4F01003DD040885C4F02008C1053
:104780000DDC494DCF4D01008D104D4D4A4DCF4DA3
:104790000200CF430400CF4305001B420211CF4B60
:1047A00008008B10CF4B09005C4F07008C105B4F4B
:1047B00006000CDB3C930D24DF430E004D493DD039
:1047C00020004C4A8C100DDCCF4D01008D10CF4DD8
:1047D0000200FF405A000000CF4E030039413A4129
:1047E0003B413041B24000598E01B2F0FEFF8E01D4
:1047F00092B38E01FD271E429E01B2F0FEFF8E0194
:1048000092B38E01FD271F429E010F8E3F908100C3
:104810000A28F25356005F4256007F93E6235F4218
:1048200057007F530C3C3F9080000C24D25356001D
:104830005F4256004F93D9235F4257005F53C24FE8
:104840005700D33F30411F4290013E4026112F5E5A
:104850001F5EFEFF824F9601B2401000860130417C
:10486000F2F0FBFF1D00C24F77005F4202003FF0F5
:104870004000FB275F4276005F4202004F93FC3707
:104880000F4E8F104F4FC24F77005F4202003FF034
:104890004000FB275F4276005F4202004F93FC37E7
:1048A000C24E77005F4202003FF04000FB275F42AC
:1048B0007600E2D21D0030414F9304245F4219007C
:1048C0006FD3043C5F4219007FF0FDFFC24F190017
:1048D000F2D21900F2F0F7FF190030415F42E01107
:1048E0004E4F3E501C116D4EC24DE0117D93022083
:1048F000F2435813FE43000030411F4282018F10E3
:104900005FF302241F4292013041A293561102200C
:10491000B012844630410B120A1209120812929307
:10492000561157247F400600B012D4455F4228112B
:104930005E4229110F5E021232C20343824F3201DE
:1049400092422211380119423A0132415F422E113E
:10495000021232C20343824F3201924224113801C3
:104960001A423A0132415F422F11021232C203430E
:10497000824F32019242261138011B423A013241E4
:104980001C422A111D422C11084B085A0E480E5980
:104990000F430E5C0F6D824E5A11824F5C11825E86
:1049A0003011826F3211825C3411826D36110E49E2
:1049B0000F43825E3811826F3A110E4A0F43825EB6
:1049C0003C11826F3E110E4B0F43825E4011826F8D
:1049D0004211384139413A413B413041F2F0FBFF4D
:1049E0001D00F240D8FF77005F4202003FF0400018
:1049F000FB275F4276005F4202004F93FC37C243C1
:104A000077005F4202003FF04000FB275F427600E4
:104A10005F4202004F93FC37D242581177005F4249
:104A200002003FF04000FB275F427600E2D21D000B
:104A300030415E4200003F40D011CF4E0000CF43D6
:104A400001005D4201000E4F2E53CE4D0000CE43BB
:104A500001005D4225000E4F2E52CE4D0000CE4388
:104A600001005E422D003F500600CF4E0000CF43B4
:104A70000100C2430000C2430100C2432500C243FB
:104A80002D00B2F0FBFFE001B2F0FBFFE801B2F055
:104A9000FBFFF001F2F0FDFF5900B2F0FDFF6001F5
:104AA000B2F0EFFF6201B2F0EFFF6401B2F0EFFF8E
:104AB0006601B2F0EFFF8201B2F0EFFF8001E2D3B6
:104AC0001F00B24010498401B2F0FEFF8401304162
:104AD0000E4232C2034303433EF25F4301204F4381
:104AE00030414F93012432D230410B120A12091285
:104AF0000812B012D04A4C4F1A42B4111B42B611E0
:104B00001D427001013C0D4F1F4270010D9FFB23A0
:104B10001F4260015FF30A241A530B631D427001A8
:104B2000013C0D4F1F4270010D9FFB2312C30D105E
:104B300012C30D1012C30D1012C30D1012C30D10AD
:104B4000084D09430E4A0F4B4FEA0FEA8F104E4EA5
:104B50008E100E5E0F6F0E5E0F6F0E5E0F6F08DE13
:104B600009DF4F4CB012E24A0E480F493841394133
:104B70003A413B4130410B120A12B012EA4A1C4240
:104B800066111D4268110A4C0B4D1A5262111B62CC
:104B900064110F9D092802200E9C06280B9D1028E9
:104BA00009200A9C0D28063C0B9D04280D9B2728F4
:104BB0000A9C252C0F9B04280B9F21280E9A1F2C42
:104BC0000C4A0D4B0C8E0D7F0D9303203C9001047D
:104BD00018280A4E0B4F3A5000040B63824A6611A4
:104BE000824B68110A4C0B4D3A5000FC3B63824AE1
:104BF0006211824B64113C4000040D430A3C0C439B
:104C00000D43824A6611824B6811824362118243CE
:104C100064110C5C0C5C0C5C0C5C0C5C0E5E0E5E3F
:104C20000E5E0E5E0E5E1F427001013C0F4D1D4276
:104C300070010F9DFB230B4F0B8E0B9C09281F420D
:104C40007001013C0F4E1E4270010F9EFB230C3C75
:104C50000C8B3C9003000C2C1F427001013C0F4E4A
:104C60001E4270010F9EFB232F53824F7201033CA3
:104C70000C5F824C7201B2F0FEFF6201B2D01000F4
:104C800062013A413B4130410B124B4FB012D04AC6
:104C90004E4BFE931C1106201E43C29B5813032447
:104CA0000E43013C1E430E930E20F293E0110320AD
:104CB000C24BE011043C5E425813CE4B1C11C24B58
:104CC00058134B43023C7B400500B012E24A4F4B65
:104CD0003B4130415F931F2406286F9324247F902B
:104CE00005002D20283C1F4262018F105FF3032432
:104CF0001F4272013041B2F0EFFF620182936211F4
:104D000007208293641104206F43B012884C304115
:104D1000B012764B30411F4264018F105FF30F24B5
:104D20001F42740130411F4266018F105FF3072458
:104D30001F42760130419253B4118263B611304163
:104D4000B012EA4A3D40B8118D4E00008D4F02006E
:104D5000BD40800004008D430600FDD00300080024
:104D60007F400300B012884C30411F4256111F9300
:104D700048242F930220B012404D92435611D24244
:104D8000D0110000D242D2110100D242D41125002C
:104D9000D242D6112D00B2F0F7FFE001A2D2E0011D
:104DA000B2F0F7FFE801A2D2E801B2F0F7FFF0019C
:104DB000A2D2F001F2F0FEFF5900E2D35900B2F0A6
:104DC000FEFF6001A2D36001B2F0FEFF6201B2D02B
:104DD00010006201B2F0FEFF6401B2D01000640165
:104DE000B2F0FEFF6601B2D010006601B2F0FEFF25
:104DF0008001A2D38001B2F0FEFF8201B2D0100088
:104E0000820130410B120A1209120812071206120F
:104E10000B4D494CCD930D0003245D4D1000013C1A
:104E20004D4379903F00702CCB4F0B00CB4E0600CA
:104E30000F4E8F10CB4F07008B4E11006D93322811
:104E4000929356116320F2F0FDFFC011B012D04AC8
:104E5000474F564B1000B240030056110A4B4843CF
:104E60000C3C5E42DA110F4AB0126C47CA490C0082
:104E7000D253DA1158533A5034004896F2233D4049
:104E80000E000E4B3E500D003F40A011B0124C6082
:104E9000B012324AB01256477F400300B012D445D8
:104EA0004F47273C929356113120F2F0FDFFC0117D
:104EB000B012D04A4A4FB240030056115E42DA1196
:104EC0000F4BB0126C47CB490C003D400E000E4B0F
:104ED0003E500D003F40A011B0124C60B012324A5B
:104EE000B012E447B01256477F400300B012D445D9
:104EF0004F4AB012E24A8293CC1108203E40A011E2
:104F00000F4BB0125C51043C6F43023C7F400500E4
:104F100036413741384139413A413B413041C24342
:104F200000111D42B2110D9304245F42E6111FF3DC
:104F30000224D2430011C293001111205F4D0700DB
:104F40008F105E4D06005C4D0C000EDF5F4D0B00B8
:104F5000B012044E4F9303245F43B012884C30418B
:104F60000B12C29300110D201B42B2110B9F09209E
:104F70008243B211B0121E4F3B906A110220C2430D
:104F80009E113B4130410B122183B2900300561118
:104F90000920814F0000B012F245D253DA112F419F
:104FA000B012604F21533B4130410B120A120912DB
:104FB0000812071206121B42AE11824F0C117640E6
:104FC00016000743094348434A431D3C7F401300F2
:104FD000B012AE464D4F3D90810003383D50D3FE98
:104FE000023C3D50D3FF1F42AE113F5003000F9DC6
:104FF00006345A53075D0B9D04340B4D023C585345
:10500000095D76530324C2931011E0277A92522847
:10501000C29310114F20B012D04A464F4E4A0F474C
:10502000B012D25F0B8F2B930B341E4290013E5077
:105030002001824E9C01B24010008C014F46853CFD
:105040009293CC110620A243CC11B0129C46B01210
:10505000FC45A292CC112B201D4290011D820C1107
:10506000824D0C1117422A111C422C110793092062
:105070000C930720824D2A113F402A118F430200D2
:10508000163C0D5D0E4D0F430A470B4C0A5A0B6B35
:105090000A5A0B6B0A5A0B6B3C400A000D430E5A1E
:1050A0000F6BB0120C60824E2A11824F2C114F46AA
:1050B000B012E24AC29310114A20B012D04A4B4FAC
:1050C0001A42AE110A5A0A5A4E480F49B012D25F1C
:1050D0003E4005000F5AB012D25F824FAE1192933C
:1050E000CC110620A243CC11B0129C46B012FC4554
:1050F000A292CC1129201D4290011D820C11824DDB
:105100000C110E4D0F43825E2A11826F2C118243C7
:10511000CC11B24000018401B0121649C2931211A1
:105120000224B0120A491D42B0110D9307241E42F9
:10513000CE110F4DB012864F8243B0111F42900125
:105140001F429401B0126A4D4F4BB012E24A3641F1
:105150003741384139413A413B4130410B120A1243
:105160000B4F0A4EB012D04A824ACE11824BB01178
:10517000C24358113E402811CE430000CE430100E7
:10518000CE430600CE4307008E4302008E43040048
:105190009243CC11B24010498401B012E24A1F423E
:1051A0009001B012AA4F4F433A413B4130410B129C
:1051B0000A1209120812071206123740B811564295
:1051C000C01166B312241A42B8111B42BA111C4214
:1051D000BC111D42BE11084E094F088A097B099D6A
:1051E00004280D991928089C172C3740C2115642E3
:1051F000CA1166B3BD241A42C2111B42C4111C421B
:10520000C6111D42C8110E8A0F7B0F9DB1280220C6
:105210000E9CAE281F43013C0F4356F30424F7F0C5
:10522000FDFF0800083C084A094B085C096D8748E7
:105230000000874902005F935624929356119820EC
:10524000B012D04A4A4FA2435611B012324AB0129D
:10525000E447B012564792429001081182430A1166
:105260007F400300B012D4454F4AB012E24AD292B6
:10527000111112117D248293CC117A20B012D04AE0
:105280004A4F5C4213115D4212115E4211110F4CE4
:105290000F5DB0120460021232C20343824F32012A
:1052A000B240340038011F423A0132413F50EC1104
:1052B000824F1411C2432811C2432911C2432E1137
:1052C000C2432F1182432A1182432C11A242CC11D6
:1052D000B240104984014F4AB012E24A1F42900185
:1052E000B012AA4F453C1F4204111F53824F0411B4
:1052F000C2939E113D20C24F86118F10C24F85115F
:10530000B012EA4AC24E8A110D4F8E108D104EED2A
:105310000EEDC24E8911C24F88118F10C24F8711F6
:10532000F2437011F2437111F2437B11F2437C118D
:10533000F240060075118293B2111A20B2406A1130
:10534000B211F24006007611C29300111C24C24330
:1053500000117C4006003D406A113E437F4006003C
:10536000B012044E4F930F24D24300118243B21166
:105370007F400300B012884C3641374138413941F3
:105380003A413B413041D2439E11F23F0B120A1287
:10539000091208120712061221835F932724062898
:1053A0006F9337247F900300C320603C5D42E61179
:1053B0004D93BE245A429E113E40B2114C435F436E
:1053C0004FBD0A24284E8E4300004DCF4C9304203D
:1053D00038906A1101204A434F5F5C532E537C92F0
:1053E000EF23C24DE611C24A9E11A23C5A4200115F
:1053F0004F4A0F5F3F50B211284F8F430000B01249
:105400001E4F4A93952038906A119220C2439E11F4
:105410008F3CC293441127201A42DC111B42DE113B
:10542000B012D04A18426211194264111852661122
:1054300019626811B012E24A824ADC11824BDE1115
:10544000C2434411B012D04A8248661182496811A1
:10545000824A6211824B6411814F0000B012764B78
:105460002F41B012E24AB012EA4A483CB012EA4A6E
:10547000084E094FB2F0EFFF6201E2B3C0111524EC
:105480000A4E0B4F1A82B8111B72BA111642BC1188
:105490001742BE11068A077B0A460B4736930A203D
:1054A0003B90FF7F07204D43063C4D433A433B4032
:1054B000FF7F013C5D43E2B3CA1116240E480F4939
:1054C0001E82C2111F72C4111642C6111742C811A2
:1054D000068E077F0E460F470F9B03380520069A5E
:1054E000032C0A4E0B4F023C4D9322240B9304389D
:1054F0001B9307341A93052C0E480F49B012AE5176
:10550000173C824ADC11824BDE11D2434411B012A7
:10551000D04A8248661182496811824A6211824BE0
:105520006411814F0000B012764B2F41B012E24A55
:10553000215336413741384139413A413B413041AD
:10554000F293E0110824B012DC487F930624B012D5
:105550008C535F4330414F4330414F4330410F1232
:105560000E120D120C124F43B012D44C3C413D416F
:105570003E413F41B1C0F000000000130F120E1277
:105580000D120C121F422E014F4F12C34F10B012BA
:10559000D44C3C413D413E413F41B1C0F000000090
:1055A00000130F120E120D120C12B012FA483C41E9
:1055B0003D413E413F41B1C0F000000000130F12D9
:1055C0000E120D120C120B120A12091208120712F7
:1055D000061221831F4290011E4294013F50E6FFB4
:1055E0000F8E0F5F814F00001E421E01824ED811A8
:1055F0009242940116112E9302243040C65D1E4241
:10560000CC113E90030004243E92022430403258D4
:105610005D421C002DF30224304032581D4294019B
:105620001D82E411824DE4113E90060002205E428C
:105630001C00B2F0EEFF8801B240104984013F9097
:105640000900962C205103430343034303430343C0
:10565000034303430343034303430343034303431A
:10566000B0129C461B4214111A42B0117E40050034
:105670000F4BB0120C475F4B02005E4B0100B29023
:105680000300CC1161204F4F8F104FDE7FF00700D9
:105690006F932920DB9A0300030025201E42B011DE
:1056A000DE432C001F42CE115D4F03007D53CF4DD2
:1056B00003000B24A243CC11C24358113E503400C6
:1056C000824EB011B012FC453F3CCF930A00272414
:1056D0005F4258117F9040002224A243CC115F53B7
:1056E000C24F5811313C5F4258115F53C24F58119D
:1056F0007F90400025201E42CE115F4E03007F5355
:10570000CE4F03000C24A243CC11C2435811B25017
:105710003400B0111F429401B012AA4F153CB012D0
:10572000F245A242CC111F4294013F502001824F0A
:105730009C01924294010C11B24010008C01043C77
:10574000A243CC11B012DC49B292CC1102243040F9
:1057500088595F4258117F904000D124B240070021
:10576000CC115F53C24F5811B012DC4930408859F8
:105770001B4214111A42B0117E4005000F4BB012AB
:105780000C475F4B02005E4B0100B2900300CC114E
:105790004C204F4F8F104FDE7FF007006F93192082
:1057A000DB9A0300030015201F42B011DF432C00D9
:1057B0001D42CE115E4D03007E53CD4E03001E24CC
:1057C0009243CC11C24358113F503400824FB01164
:1057D000283CD2535811B012DC49F29040005811C5
:1057E0001E201F42CE11CF93030008249243CC11F8
:1057F000C2435811B2503400B011133CB012F245FC
:10580000A242CC111F4294013F502001824F9C01C3
:10581000924294010C11B24010008C01063C92435C
:10582000CC111F429401B012AA4FB292CC11AC20FD
:10583000663C3E900600AF205D421C002DF3022422
:105840003040085D1E4294011E82E411824EE41134
:10585000B2F0EEFF8801B240104984013F90090088
:10586000512C2051034303430343034303430343A6
:105870000343034303430343034303430343B0127C
:105880009C461F42B0110F9305241E42CE11CE93A9
:10589000020021205E4212114E931B245E921111D0
:1058A0001824C29350111124F290070051110D2CAD
:1058B000B2400700CC110F930224824F0E11924286
:1058C0001411B011C2435811083CC29346112D2443
:1058D000163C0F930524A243CC11B012FC45543C56
:1058E0005E9211110C20B012F245B2400001840109
:1058F000D2532E119242E41124113040225FB01293
:10590000F245343C1D42B0110D9305241F42CE11C7
:10591000CF93020011205F4212114F930B245F922C
:1059200011110824C29346112120B012F245A2425F
:10593000CC11043C0D930724A243CC111F429401C7
:10594000B012AA4F213C5F9211111020B240000109
:105950008401D2532E11824E2411B0121649C293E3
:10596000101102203040305F30402C5FA242CC1139
:105970001F4294013F502001824F9C0192429401AA
:105980000C11B24010008C01D2532E119242E4113E
:1059900024113040925F3E900500BA205E421C0008
:1059A0002EF302243040925F1E4294011E82E811C1
:1059B000824EE811B2F0EEFF8801B2401049840136
:1059C0003F9009001C2C205103430343034303432E
:1059D0000343034303430343034303430343034397
:1059E00003437F400A00B012D445B2F0FEFF8401A9
:1059F000B012844692429001E211B01246481A4217
:105A00001411B2400600CC115D4254115E42E71100
:105A10005E534F4D4E8D0F5AB0120C475F42E71147
:105A20004E4F5E53C24E54110F5ACF930000633451
:105A30001B421411CB930E005E241F4B11001F92CA
:105A400002110A243F90FEFF56201F4B13001F82B5
:105A5000EA111F9B15004F28CB9317004C24574B7E
:105A60001800479348245842121109435642131113
:105A7000263C3E4007000F490F56B0120460021248
:105A800032C20343824F3201B240340038011E4219
:105A90003A0132413E50EC11DA9E030003000E2021
:105AA0005C4A09008C105F4A08000CDF5D4E09005B
:105AB0008D105F4E08000DDF0C9D2124195349986D
:105AC000D82B3040645F5D4213114F4E3E400700BB
:105AD0000F5DB0120460021232C20343824F3201E2
:105AE000B240340038011F423A0132413F50EC11BC
:105AF000824F1411043CB012F245B0128446D253C6
:105B000028111F4222110F5F0F5F1F52E8113B3C0B
:105B10002E9342205E421C002EF302243040845D0E
:105B20001E4294011E821811824E1811B2F0EEFF2F
:105B30008801B240104984013F900900142C205183
:105B40000343034303430343034303430343034325
:105B500003430343034303430343B0124648B240A5
:105B60000300CC11083CB012F2459243CC111F4205
:105B70009401B012AA4FD25329111F4222110F5F74
:105B80000F5F1F5218110F5F3E400A00B012B05F46
:105B9000824F22113040925F3E90070034205E42D7
:105BA0001C002EF3D620B2F0EEFF8801B24010495F
:105BB00084013F900900132C205103430343034306
:105BC00003430343034303430343034303430343A5
:105BD00003430343B0124648B242CC11103CB0120A
:105BE000F2458243CC111F4294013F502001824F65
:105BF0009C01924294010C11B24010008C01D253CE
:105C000029113040925F2E9202241E9375205F422C
:105C10001C002FF371241F4294011F820C11824F2C
:105C20000C1192429401E811B2F0EEFF8C01B240E7
:105C3000108984011E4294013E5020035F42E71107
:105C40007D4007000F5F7D53FD230F5E824F98015B
:105C5000924294011A11B24010008801D2431011EF
:105C60001B421411B2400500CC11083C92B38801CC
:105C70000524B01284468243CC110C3C5F422000C4
:105C80003FF2F4270F4BB0124C46E29BE71106247B
:105C9000B0128446B24010498401253CD2435411CD
:105CA000193C92B38801F4235F4220003FF2F927A8
:105CB0004E4E0E5B5F4202004F93FC37C2437700AB
:105CC0005F4202003FF04000FB27DE42760000000A
:105CD000D25354115E4254115F42E7113F50F9FF15
:105CE0004D4E0D9FE13B1E420C110F43825E2A1167
:105CF000826F2C113040925F3E90060005243E904A
:105D0000030002243E9222205F421C002FF31E2437
:105D10001F4294011F82E211824FE21192429401CC
:105D2000E411B2F0EEFF86011E4294013E50A00540
:105D3000824E9801924294011A11B24010008801DB
:105D4000B24010898401824F2611B73C3E90070073
:105D500015205F421C002FF302203040925FB240BA
:105D6000108984011E4294013E5020035F42E711D6
:105D70007D4007000F5F7D53FD231B3C2E930224C3
:105D80003040925F5F421C002FF302203040925F50
:105D9000924294011811B240108984011E4294016C
:105DA0003E5020035F42E7117D4007000F5F7D53A7
:105DB000FD230F5E824F9801924294011A11B24066
:105DC000100088017A3C3E9006007A243E900A003A
:105DD00097242E92BE203F900900512C205103435E
:105DE0000343034303430343034303430343034383
:105DF0000343034303430343B0129C461F42CC11A9
:105E00003F90060008208293B0114524A243CC1194
:105E1000B012FC45503C3F9003001820D25358115B
:105E2000B012DC49F2904000581145201E42CE11BC
:105E30005F4E03007F53CE4F03002D24A243CC11AD
:105E4000B2503400B011B012FC45163C3F923320E2
:105E5000D2535811B012DC49F290400058112B2057
:105E60001F420E110F931724A243CC11824FB01181
:105E7000B012FC4582430E11C24358111C3C829360
:105E8000B0110924D25358119243CC111F429401EE
:105E9000B012AA4F103CB012F245A242CC111F42E0
:105EA00094013F502001824F9C01924294010C11B9
:105EB000B24010008C01D2532E11D2532F11693CE5
:105EC000B012F245A242CC111D4294011D821A115A
:105ED000824D1A110E4D0F43825E2A11826F2C11D2
:105EE000B240104984011F4294013F502001824F6B
:105EF0009C01924294010C11B24010008C01493C6B
:105F00001D4294011D820C11824D0C110E4D0F4348
:105F1000825E2A11826F2C118243CC11B2400001A3
:105F20008401B0121649C29312110224B0120A4918
:105F30001F42B0110F9306241E42CE11B012864F9D
:105F40008243B0111F4290011F429401B0126A4D6A
:105F5000203C1F421E014F4F12C34F101A20B01297
:105F6000FA48173C7753CB4718003D400E000E4BC4
:105F70003E500D003F404611B0124C604E485E53FB
:105F8000C24E12115E92111102243040C65A3040A6
:105F9000FE5A215336413741384139413A413B415C
:105FA0003C413D413E413F41B1C0F0000000001383
:105FB0007C4010000D4E0E430F5F0E6E0E9D0228AA
:105FC0000E8D1FD31C83F8233041B012B05F0F4EEB
:105FD00030410D430F9304343D4003003FE31F5312
:105FE0000E9303345DE33EE31E530D12B012B05F17
:105FF0003D416DB302243EE31E535DB302243FE3F3
:106000001F533041B012D25F0F4E30410B120A12B3
:106010000912794020000A4C0B4D0C430D430E5ED3
:106020000F6F0C6C0D6D0D9B062802200C9A032837
:106030000C8A0D7B1ED31983F22339413A413B412F
:106040003041B0120C600E4C0F4D30410B120A1251
:106050000912081207120D9370240F9E6E24342C1F
:106060000C4E0CDF1CF31B240C4E0CEF1CF3072012
:106070002D9307280B4E1BF32C430C8B033C0C4D2C
:10608000013C1C430D8C0A4C094E0B4FFB49000090
:106090001B533A53FB230A4F0A5C0E5C013C0A4F28
:1060A0000B4D12C30B100B24094B084E0C4ABC4875
:1060B00000002C533953FB230B5B0E5B0A5B1DF373
:1060C0003C24EA4E0000393C0E5D0C4F0C5D0B4C3D
:1060D0000BDE1BF31B240B4C0BEE1BF306203D9039
:1060E000030003280B4E1BF3013C0B4D0D8B094E97
:1060F0000A4C084B088C3A533953EA490000074AC6
:106100000758F9233BE31B530C5B0E5B0B4D12C38B
:106110000B100E240A4B084E094C28832983A948EA
:1061200000003A53FA230A8B0B4A0B5B0E5B0C5BA5
:106130001DF30324DC4EFFFFFFFF37413841394197
:106140003A413B4130410B120A12091208123D90AC
:106150000600092C0C4F043CCC4E00001C533D5350
:106160000D93FA23203C4E4E4B4E0B9303240C4BC5
:106170008C100BDC1FB306243D53CF4E0000094F9B
:106180001953013C094F0C4D12C30C100A49084C1D
:106190008A4B00002A533853FB230C5C0C591DF327
:1061A0000224CC4E0000384139413A413B41304154
:0261B0000013DA
:0C61B2000000100050009000D000F00031
:0461BE0001010100DA
:10FFE000D045D045D045D045D0457C555E55D0450F
:10FFF000D045D045D045D045BE55A255D04500404E
:0400000300004000B9
:00000001FF
